:020000040800F2
:10000000A005002001010008971E0008691C0008D7
:10001000951E0008E9040008752000080000000093
:100020000000000000000000000000009B1E00080F
:100030007707000800000000991E00089D1E0008B8
:100040001B0100081B0100081B0100081B01000820
:100050001B0100081B0100081B0100081B01000810
:100060001B0100081B0100081B01000841070008D4
:100070001B0100081B0100081B0100081B010008F0
:100080001B0100081B010008AD0300081B0100084C
:100090001B0100081B0100081B0100081B010008D0
:1000A0001B0100081B0100081B0100081B010008C0
:1000B0001B0100081B010008000000001B010008D4
:1000C0001B01000800000000000000001B010008E8
:1000D00000000000692000081B010008000000006B
:1000E0001B0100081B0100081B010008DFF80CD0F1
:1000F00000F04AF900480047AD240008A0050020A0
:100100000648804706480047FEE7FEE7FEE7FEE7B1
:10011000FEE7FEE7FEE7FEE7FEE7FEE7F51E000866
:10012000ED000008D2B201E000F8012B491EFBD21D
:1001300070470022F6E710B513460A4604461946F2
:10014000FFF7F0FF204610BD421C10F8011B0029EC
:10015000FBD1801A704710B5002200E0521C835C6E
:100160008C5CA34201D1002BF8D1D8B2E1B2401A85
:1001700010BDF0B480EA0102D40F4200B2EB410F8F
:1001800002D20246084611464A0042D0C30DDDB2F3
:10019000C1F3C752AD1A202D35DAC1F3160141F46F
:1001A000000204B15242C5F1200602FA06F12A41CA
:1001B0001044B3EBD05F23D0C4B1012DA0EBC350EA
:1001C00009DCF0BC4FF0004202EAC352DBB200F59A
:1001D000000000F0AAB8400000F1807000EBC350AE
:1001E000A0F1807040EAD170490009E0490841EA75
:1001F000C071A0EBC35000F50000400800EBC350F5
:10020000F0BC00F089B86142012202EB4101001B01
:10021000F6E7F0BC704781F00041AAE780F00040AB
:10022000A7E730B480EA010202F0004530F0004256
:1002300021F0004013D090B1C30DD40DC2F31601CC
:10024000C0F31600E41A41F4000140F400027D34CA
:10025000914201D3641C00E04900002C02DA30BC5A
:10026000002070474FF400000023914201D3891A07
:10027000034340084FEA4101F7D151B1914202D105
:100280004FF0004105E002D24FF0010101E06FF0B4
:10029000010103EBC450284430BC00F03DB8C10F4D
:1002A00080EAE0700844CA079623002100F03DB8B8
:1002B00096230022114600F038B800F0004220F0EA
:1002C0000040C10DC0F3160040F400007F2901DAA0
:1002D00000207047962903DCC1F19601C84001E077
:1002E00096398840002AF4D04042704730B50B461A
:1002F000014600202022012409E021FA02F59D4256
:1003000005D303FA02F5491B04FA02F52844151E29
:10031000A2F10102F1DC30BD0029A8BF7047401CEA
:10032000490008BF20F00100704710B4B0FA80FC0B
:1003300000FA0CF050EA010404BF10BC704749B148
:10034000CCF1200421FA04F411FA0CF118BF0121B8
:1003500021430843A3EB0C01CB1D4FEA00614FEA98
:10036000102042BF002010BC704700EBC350104467
:100370000029A4BF10BC7047401C490008BF20F0F2
:10038000010010BC70470000064C074D06E0E06815
:1003900040F0010394E8070098471034AC42F6D3CC
:1003A000FFF7A8FE1826000838260008014800F0CC
:1003B000FDBA0000E800002070B5044600688168BE
:1003C000C943C9071CD1816821F00101816000F097
:1003D00019FF05460FE000BF00F014FF401B022884
:1003E00009D9A06A40F01000A062E06A40F0010064
:1003F000E062012070BD20688068C043C007EBD078
:10040000002070BD10B50146406A826A12F0500F9C
:1004100005D0006A026BBDE8104008461047816AAB
:1004200041F40071816201688968C1F34241072982
:100430000CD1017B51B9816A21F480718162816A9A
:10044000C90403D4816A41F00101816200F014FA09
:1004500010BD10B5406A816A41F040018162C16AF5
:1004600041F00401C16200F0A0FA10BD10B5406A6D
:1004700000F09AFA10BD0000F8B500260446009678
:1004800000688168C943C90728D0816841F001012B
:100490008160134813490068B0FBF1F000E0401E92
:1004A00000900028FBD100F0ADFE054611E000BF32
:1004B00000F0A8FE401B02280BD9A06A40F01000F3
:1004C000A062E06A40F00100E06284F8246001204C
:1004D000F8BD20688068C043C007E9D10020F8BD9E
:1004E000BC00002040420F00FEE700002DE9FE4F57
:1004F0008246014655A0FFF72EFE574D0028A5F174
:100500002C0420D0514655A0FFF725FE002822D00C
:10051000514657A0FFF71FFE28B3514659A0FFF7D9
:100520001AFE012618B351465AA0FFF714FE002701
:1005300000B351465CA0FFF70EFEDFF880914FF448
:100540000068D8B11CE0A06810B10522696858E0C5
:100550000722296855E0E06806E00422A96850E017
:100560000322E9684DE020690028F9D1F5E7A6608B
:10057000296925E0A7601322696942E0A06828B1D3
:1005800051464FA0FFF7E7FD48B10AE0002241467F
:100590004846E76000F030FE1222A96931E0A06809
:1005A00038B151464BA0FFF7D6FD4FF4806848B1F3
:1005B0000AE0012241464846E66000F01DFEE96976
:1005C00011221EE0A06828B1514646A0FFF7C3FDE6
:1005D00048B10AE0002241464846276100F00CFE7F
:1005E0001022296A0DE0A06888B1514641A0FFF7AA
:1005F000B2FDA8B1514644A0FFF7ADFD98B110225D
:1006000046A103B04948BDE8F04F01F00DBB0122FF
:1006100041464846266100F0EFFD0F22696AF0E787
:1006200043A1E26904E06069FFF747FE024642A188
:10063000684601F021FD6846FFF786FD82B26946F3
:100640003A4801F0F1FABDE8FE8F000041545F47DF
:1006500065744D6F646500003800002041545F47A9
:10066000657453746174735F4865617465720000EA
:1006700041545F47657453746174735F4C616D706E
:100680000000000041545F5365744D6F64655F4125
:1006900075746F0041545F5365744D6F64655F4DB1
:1006A000616E75616C00000041545F5475726E4F4D
:1006B00066665F486561746572000000000C014069
:1006C00041545F5475726E4F6E5F48656174657218
:1006D0000000000041545F5475726E4F66665F4CB7
:1006E000616D700041545F5475726E4F6E5F4C6166
:1006F0006D70000041545F47657454656D7065729C
:10070000617475726500000041545F476574496CFF
:100710006C756D696E6174696F6E000057726F6EF3
:100720006720436F6D6D616E640D00005C010020F9
:100730002564204445470D002564204C55580D0084
:10074000014800F057BB00001801002030B590F8B8
:1007500040500124AC40C56B6C6004686360436822
:10076000102B036803D099600068C26030BD9A60A6
:100770000068C16030BD704770477047F8B500240D
:10078000009490F824202546012A12D0012280F8F6
:1007900024204A681F23072A0DD20668776B521E51
:1007A00002EB820293409F430B6893401F437763A1
:1007B00019E00220F8BD06680D2A0AD2376BD21F55
:1007C00002EB820293409F430B6893401F433763C1
:1007D00009E0F76A0D3A02EB820293409F430B68EF
:1007E00093401F43F7620A68072306680A2A0AD360
:1007F000F7680A3A02EB420293409F438B689340AA
:100800001F43F76008E0376902EB420293409F43C1
:100810008B6893401F4337610A68102A01D0112A60
:1008200020D1124B02689A4217D193681B0219D447
:10083000936843F4000393600968102912D10C49AE
:100840000C4A0968B1FBF2F101EB8101490000E0BB
:10085000491E00910029FBD104E0816A41F020018A
:100860008162012480F824502046F8BD0024014014
:10087000BC00002040420F002DE9F041434E40F6FD
:10088000E441A6F124043068484349F6F671B0FB10
:10089000F1F0E0610521012001F044FA3CA120467D
:1008A000E26901F0E9FB204601F030FAA069FFF7A8
:1008B000F6FC05467068FFF7FBFC3749FFF7B1FC13
:1008C00001462846FFF7ADFC2946FFF7A4FCFFF7D9
:1008D000F4FC0023194604F15405206255F8332036
:1008E00055F83160121AA6EB000600D55242964226
:1008F00000DA0B46491C0A29F0DB05EBC30040680F
:10090000FFF7CDFC60610521022001F00BFA606960
:10091000FFF7D3FC02461D481DA1243801F0ACFBB3
:100920001A48243801F0F2F9A06801282CD10125D9
:10093000E069EF02DFF86480142805DA0122394605
:100940004046E56000F058FCE0690026182805DD07
:10095000002239464046E66000F04EFC10496069CE
:100960004FF48067884205DA01223946404600F09C
:1009700043FC25610B496069884205DD0022394648
:10098000404600F039FC2661BDE8F08130000020CF
:10099000253033640000000000F07F45000C01406A
:1009A0000000C8430000FA437047704710B5044682
:1009B00000684168890626D50168890723D5A16AA0
:1009C000C90603D4A16A41F40071A1628168C1F330
:1009D0004241072910D1217B71B9416821F02001E2
:1009E0004160A06A20F48070A062A06AC00403D4B1
:1009F000A06A40F00100A0622046FFF73DFF216899
:100A00006FF0120008602068416809062ED5016861
:100A100049072BD5A16AC90603D4A16A41F4005144
:100A2000A1628168C1F30231072909D041684905F3
:100A300015D48168C1F34241072910D1217B71B9D6
:100A4000416821F080014160A06A20F48050A062DA
:100A5000A06AC00503D4A06A40F00100A06220464D
:100A6000FFF78BFE21686FF00C000860206841687A
:100A700049060DD50068C0070AD0A06A40F480304E
:100A8000A062204600F094F821686FF00100086031
:100A900010BD00002DE9F0414FF0000704003D4675
:100AA0007ED0A06A002628B9E66284F82460204639
:100AB00000F080F82046FFF77FFCA16AC90600D449
:100AC00020B1A06A40F01000A06269E0A16A21F4A0
:100AD000885141F00201A1626268E169237B0A4307
:100AE00047EA43010A43A1684FF48077B94209D02D
:100AF000012907D05FF0000194F814C0BCF1010F88
:100B000002D00AE03946F7E7F3B1A36A43F02003C5
:100B1000A362E36A43F00103E3622368D3F804C0ED
:100B20002CF4694C4CEA010CC3F804C021688B68B2
:100B3000DFF870C003EA0C0313438B60A168B9426D
:100B40000BD0012909D00CE0DFF85CC0A3690CEBE5
:100B500043330B4343F40061DFE7218A0D05A5F51C
:100B600080152168CB6A23F470032B43CB62216884
:100B700089680E4B1940914208D1E662A16A21F0C2
:100B8000020141F00101A162BDE8F081A06A20F0FC
:100B9000020040F01000A062E06A40F00100E06254
:100BA0000120F1E7FDF7E1FF00E0FFFFFE0E1FFF70
:100BB0007047000070B586B0002506460095019587
:100BC0000295039500681D49884234D11C49886903
:100BD00040F400708861886900F4007004908869AE
:100BE00040F0040088618869694600F004000490C0
:100BF000032000900190134800F01EFA134C124895
:100C0000C4E900058020C4E9025040002061C00012
:100C1000C4E905052046E56100F096F908B1FFF743
:100C2000ABFD3462002201211220666200F056FB07
:100C3000122000F045FB06B070BD0000002401400A
:100C40000010024000080140080002401801002086
:100C50002DE9F047894604463B4900683B4F0E1D8D
:100C60009046884201D0B84207D1306810F4702F06
:100C700003D001252846BDE8F08794F82400012818
:100C80000CD0012084F824002046FFF7F5FB050076
:100C90004FF0000004D084F82400EBE70220EAE7DC
:100CA000A16A40F60162914341F48071A16221681A
:100CB000B94218D1326812F4702F14D0A16A41F4ED
:100CC0008011A1623168490505D5A16A21F400515E
:100CD00041F48051A162A16AC9040AD5E16A21F0F8
:100CE0000601E16206E0A26A22F48012A26249686B
:100CF000E9E7E06284F82400216A15488862216AE5
:100D00001448C862216A1448086321686FF0020021
:100D100008602068816841F48071816021684346E1
:100D20004A464C31206A00F03DF920688168C1F3E1
:100D300042410729816803D041F48011816099E71D
:100D400041F4A001FAE7000000240140002801401E
:100D5000050400086D0400085304000810B590F85D
:100D600021100024022903D00421816301243DE0E5
:100D700001680A6822F00E020A6001680A6822F01F
:100D800001020A601A4A0168914201D1012121E061
:100D9000174A1432914201D110211BE0144A283223
:100DA000914201D1891515E0114A3C32914201D19D
:100DB00089140FE00E4A5032914202D14FF4803133
:100DC00008E00B4A6432914202D14FF4801101E0F5
:100DD0004FF08071064A083A5160012180F82110D5
:100DE000002180F82010416B01B18847204610BDDA
:100DF000080002402DE9F05FC16B0C6801680B68C8
:100E0000D0F840C0042202FA0CF2494DDFF824A1C8
:100E1000494E4A4FDFF828B1DFF828E122422CD0B2
:100E20005A072AD50A68920603D40A6822F00402F7
:100E30000A600168A94201D1042219E0514501D19B
:100E4000402215E0B14202D14FF4806210E0B94275
:100E500002D14FF480420BE0594502D14FF4802279
:100E600006E0714502D14FF4800201E04FF080624C
:100E70002F4908394A60C16A3BE04FF0020808FA7E
:100E80000CF818EA040F4FF000094FF0010235D0BA
:100E90005FEA837832D50B689B0605D40B6823F094
:100EA0000A030B6080F821200168A94201D10222C7
:100EB00019E0514501D1202215E0B14202D14FF491
:100EC000007210E0B94202D14FF400520BE05945D4
:100ED00002D14FF4003206E0714502D14FF4001206
:100EE00001E04FF00072124908394A6080F8209002
:100EF000816A00291AD0BDE8F05F0847082505FA85
:100F00000CF5254212D01B0710D50B6823F00E03F9
:100F10000B6090F84010C36B02FA01F159608263D4
:100F200080F8212080F82090016BE2E7BDE8F09F77
:100F3000080002401C000240300002404400024011
:100F4000580002406C00024030B528B308C813496D
:100F500014221944B1FBF2F18900C1631049816385
:100F6000022141771A6843F6F0718A43D0E90014F0
:100F70002143D0E902452C432143046921434469BC
:100F800021438469214311431960002141630122F7
:100F900042770177084630BD012030BDF8FFFDBF24
:100FA0000000024070B5044690F82000002501289A
:100FB0000CD0012084F8200094F821600020012E3C
:100FC00006D084F820000225284670BD022070BD9E
:100FD000022684F82160A0632068066826F00106D6
:100FE00006602046FFF7B2FBE06A0028206801682F
:100FF00002D041F00E0106E021F0040101602068FA
:10100000016841F00A0101602068016841F00101B6
:101010000160D9E770B5044600F0F4F80546601C9D
:1010200002D004480078044400F0ECF8401BA042D1
:10103000FAD370BDB00000202DE9F84FDFF89C9185
:10104000002409F1040A0AF1040B23460F270BF1CF
:10105000040EBBE00125A5402A40AA4276D1DFF864
:1010600080C14E68A6EB0C0866452BD00DDC032E24
:1010700034D005DC36B3012E19D0022E2FD11BE05F
:10108000112E16D0122E2AD119E0B8F5881F19D0CA
:1010900006DCB8F5803F15D0B8F5801F1FD111E0F0
:1010A000B8F5001F0ED0B8F5041F18D10AE0CB68C0
:1010B00015E0CB681B1D12E0CB6808330FE0CB684E
:1010C0000C330CE08B682BB1012B4FF0080303D0DD
:1010D000456104E0042302E0056100E00023FF2AEB
:1010E00001D8064601E000F104064FEA840501D963
:1010F000A5F12005D6F8008007FA05FC28EA0C08BF
:1011000003FA05F548EA0508C6F800804D68ED00C9
:101110005BD5344DAE6946F00106AE61AD6924F091
:10112000030605F0010500952F4D06EB050CDCF8D4
:101130000850A607360F07FA06F825EA0805DFF873
:10114000AC80404503D14FF0000810E03DE0DFF8EF
:10115000A080404502D14FF0010808E0DFF89480FC
:10116000404502D14FF0020801E04FF0030808FAB1
:1011700006F848EA0508CCF808804D68D9F8006000
:10118000ED034D4601D5164300E096432E604D68B1
:10119000DAF80060AD03554601D5164300E09643EA
:1011A0002E604D68DBF80060ED025D4601D5164308
:1011B00000E096432E604D68DEF80060AD02754693
:1011C00001D5164300E096432E60641C0A6832FA8B
:1011D00004F57FF43FAFBDE8F88F00000004014044
:1011E0000000111000100240000001400008014002
:1011F000000C0140001001400AB101617047090470
:10120000FBE700000148806870470000B000002044
:10121000024881680278114481607047B000002064
:10122000074810B5016841F010010160032000F08B
:1012300075F8002000F006F800F024F8002010BD3A
:101240000020024070B50D4D04464FF47A712878A5
:10125000B1FBF0F00A490968B1FBF0F000F062FB65
:1012600048B9102C07D200222146501E00F036F853
:1012700000206C6070BD012070BD0000B000002037
:10128000BC0000200C4808B5816941F00101816172
:10129000816901F001010091C16941F08051C16192
:1012A000C06900F0805000900448416821F0E0617E
:1012B00041F08061416008BD001002400000014023
:1012C000002809DB00F01F02012191404009800045
:1012D00000F1E020C0F8001170470000F0B40E4BA0
:1012E0001B680C46C3F30223C3F10705042D00D984
:1012F0000425191D072901D2002300E0DB1E012669
:1013000006FA05F1491E214099409E40761E16407E
:101310003143F0BC00F0C4BE0CED00E0064900F023
:10132000070208684FF6FF03184040EA0220034A0C
:1013300010430860704700000CED00E00000FA0563
:101340002DE9F84305460078354CC00754D0E069D4
:101350000026C00008D4E06940F08050E061E069F8
:10136000012600F0805000902E480168C90512D473
:101370000168804641F480710160FFF743FF074632
:1013800005E000BFFFF73EFFC01B642823D8D8F854
:101390000000C005F6D5206A10F4407021D0A9885D
:1013A00001F4407181421CD0206A1F49012220F4BF
:1013B00040700A6000220A602062C00711D0FFF767
:1013C00021FF074641F2883808E000BFFFF71AFF07
:1013D000C11B414502D90320BDE8F883206A80077C
:1013E000F4D5206A696820F44070084320621EB179
:1013F000E06920F08050E0612878800705D56068BA
:10140000A96820F44040084360602878C00605D5EC
:101410006068E96820F48000084360600020DBE732
:101420000010024000700040400442422DE9F047A5
:101430000F46050061D0434E306800F00700B84207
:1014400009D2306820F0070038433060306800F07F
:101450000700B84251D128683B4C810712D540079C
:1014600003D5606840F4E06060602878000703D529
:10147000606840F4605060606068A96820F0F00027
:10148000084360602878C00728D06868012810D019
:101490002168022810D0890700292EDA616821F01E
:1014A000030101436160FFF7ADFE804641F28839D8
:1014B0000DE021688903EFE78901EDE7FFF7A2FE60
:1014C000A0EB0801494502D90320BDE8F087606818
:1014D000696800F00C00B0EB810FEFD1306800F0CC
:1014E0000700B8420BD9306820F00700384330605D
:1014F000306800F00700B84201D00120E5E7287805
:10150000400705D56068E96820F4E0600843606042
:101510002878000706D56068296920F4605040EA01
:10152000C100606000F038F86168084AC1F3031137
:10153000515CC8400649086006480068FFF782FE13
:101540000020C2E700200240001002408025000871
:10155000BC000020B4000020044805490068496828
:10156000044AC1F30221515CC8407047BC0000200E
:1015700000100240902500080448054900684968A9
:10158000044AC1F3C221515CC8407047BC0000202E
:10159000001002409025000812A185B00FC98DE807
:1015A0000F0014A0144A006804905168134801F019
:1015B0000C03042B10D0082B0ED1C1F38343C903B5
:1015C0001DF803000AD5516804AAC1F34041515CDB
:1015D0000A4A5043B0FBF1F005B070470849484350
:1015E000FAE7000002030405060708090A0B0C0DC0
:1015F0000E0F1010010200000010024000127A00CD
:1016000000093D002DE9F84F040070D02078C04D4E
:10161000C00749D06868C0F38100012807D0686816
:10162000C0F38100022809D16868C00306D5286884
:10163000800339D560680028E7D035E06068B0F5F0
:10164000803F0BD010B1B0F5A02F11D0286820F446
:1016500080302860286820F4802002E0286840F468
:1016600080302860606890B1FFF7CCFD06460AE044
:10167000286840F480202860F0E700BFFFF7C2FD33
:10168000801B642873D828688003F7D50CE0FFF727
:10169000B9FD064605E000BFFFF7B4FD801B6428D6
:1016A000F0D828688003F7D420789A4E80074FF04E
:1016B00001094FF0000839D5686810F00C0F07D009
:1016C0006868C0F38100022809D16868C00306D4A5
:1016D0002868800714D52069012808D110E0206906
:1016E000B0B1C6F80090FFF78DFD074605E00AE1AE
:1016F000FFF788FDC01B0228C4D828688007F7D5EB
:101700002868616920F0F80040EAC10028600DE017
:10171000C6F80080FFF776FD074604E0FFF772FD8C
:10172000C01B022823D828688007F7D42078000738
:101730002CD57948A169D9B1C0F80090FFF762FDB6
:10174000074604E0FFF75EFDC01B02280FD8686A59
:101750008007F7D571484FF4FA510068B0FBF1F0FB
:10176000009000BF0098411E0091FAD20EE080E088
:10177000C0F80080FFF746FD074604E0FFF742FD92
:10178000C01B022875D8686A8007F7D42078400704
:1017900060D5E8690027C00008D4E86940F08050AF
:1017A000E861E869012700F0805000905C4801681A
:1017B000C90513D40168834641F480710160FFF7C5
:1017C00021FD824606E000BFFFF71CFDA0EB0A00EA
:1017D00064284ED8DBF80000C005F5D5E068012884
:1017E0000AD008B1052813D0286A20F00100286229
:1017F000286A20F0040002E0286A40F00100286214
:10180000E06841F2883B98B1FFF7FCFC82460BE0B0
:10181000286A40F004002862EEE700BFFFF7F2FC00
:10182000A0EB0A0159455AD8286A8007F6D50CE082
:10183000FFF7E8FC824605E0FFF7E4FCA0EB0A01B5
:1018400059454CD8286A8007F6D41FB1E86920F0C2
:101850008050E861E06988B36968C1F381010229B9
:1018600044D00228C6F8608004D0FFF7CBFC0446C1
:1018700038E034E0FFF7C6FC074604E0FFF7C2FC9F
:10188000C01B02282BD828688001F7D4206AB0F545
:10189000803F05D16868A16820F400300843686083
:1018A000D4E908010843696821F4741108436860A9
:1018B000C6F86090FFF7A6FC044606E025E000BFEE
:1018C000FFF7A0FC001B022809D828688001F7D583
:1018D0001BE000BFFFF796FC001B022802D9032083
:1018E000BDE8F88F28688001F4D40EE00128F7D015
:1018F0006868226A00F48031914204D1616A00F480
:101900007010884201D00120EAE70020E8E70000DB
:10191000001002400000424280044242BC0000200D
:101920000070004010B5401EB0F1807F01D301204F
:1019300010BD4FF0E02460610F21601700F0B0FB94
:101940000020A06107202061002010BD704700002A
:1019500070B5026804461068D168536910F00F0F23
:1019600052D003F0010501F490762E435FD0C207F8
:1019700005D0CA0503D5E26B42F00102E2634207DB
:1019800005D5DA0703D0E26B42F00202E263820778
:1019900005D5DA0703D0E26B42F00402E2630207E6
:1019A00007D501F020022A4303D0E26B42F008027F
:1019B000E263E26B002A33D0800604D5880602D5A4
:1019C000204600F0AEFA20684069E16BC0F3801059
:1019D000090700D428B3204600F095FA2068416931
:1019E00049061AD5416921F040014161606BA0B1FF
:1019F0002D494163606BFFF7B1F9002810D0606B8F
:101A0000416BBDE870400847830610D58B060ED5A4
:101A10002046BDE8704000F084BA2046FFF796FFEC
:101A200070BD2046FFF792FF0020E06370BD030603
:101A30002BD50B0629D594F839002128F6D1A068BA
:101A4000B0F5805F01D12069B0B1206A411C2162EC
:101A5000216800784860E08C401E0004000CE0849F
:101A6000E4D12068C16821F08001C1602068C168AC
:101A700041F04001C16070BD206A0088C0F30800D9
:101A80005060206A801C2062E5E74006F3D54806D6
:101A9000F1D5D168204621F04001D160202184F8A1
:101AA000391000F0E0F870BDF71E000870B50400B2
:101AB00004D094F83900002510B106E0012070BD73
:101AC00084F83850204600F023F8242084F83900A8
:101AD0002068C16821F40051C160204600F068FA16
:101AE0002068016921F4904101612068416921F079
:101AF0002A0141612068C16841F40051C160E56379
:101B0000202084F8390084F83A00002070BD0000DD
:101B100030B585B0002400940194029403940068C9
:101B2000184988422CD11848816941F4804181616B
:101B3000816901F480410491816941F0040181616E
:101B40008069124D00F0040004904FF40070009082
:101B5000022001900320039069462846FFF76CFAA3
:101B60002815CDE90004694628460294FFF764FA77
:101B7000002201212520FFF7B1FB2520FFF7A0FB64
:101B800005B030BD0038014000100240000801409F
:101B900090F83A30202B22D1F9B1F2B190F83830D8
:101BA000012B1CD081628285C2850021C163222263
:101BB00080F83A2080F838100168CA6842F48072D0
:101BC000CA6001684A6942F001024A610068C1685E
:101BD00041F02001C16000207047012070470220C1
:101BE000704700000D4810B50D49037800F114024C
:101BF00048680D2B03D01354401C486006E00023B6
:101C0000135406484B601430FEF770FCBDE81040DA
:101C1000012202490348FFF7BBBF0000C0000020BB
:101C20000C0000205C01002090F83930202B18D1E6
:101C3000A9B1A2B190F83830012B12D00162828490
:101C4000C2840021C163212280F8392080F8381035
:101C50000068C16841F08001C16000207047012028
:101C60007047022070477047FEE70000084810B533
:101C700001214160816000210160012000F0E6FB4C
:101C8000022000F0E3FBBDE810400A20FFF7C2B9D4
:101C90000000002010B5FFF7E9FF282000F0D6FB78
:101CA000062000F0D3FB0C2000F0D0FBBDE8104074
:101CB0000A20FFF7AFB9000070B5134C0125216869
:101CC000491C2160102905DA00F0CEFBA068401CF9
:101CD000A06070BD09D100F0C7FB01210220A56002
:101CE00000F020F80220606070BD11390F29EBD39D
:101CF00000F0BAFB01210846A56000F013F80020AF
:101D0000C4E9000570BD00000000002010B50446C5
:101D100003E000BFFFF7D0FF641C20780028F9D152
:101D200010BD000070B50C4D0C46064601280CD0C5
:101D3000022E09D104F1BF00C0B200F087FB04F10C
:101D40000F00AC60C5E9000670BD04F17F00C0B2B1
:101D500000F07CFB601EF4E7000000203EB500248C
:101D60001648009401941449029401608915816019
:101D700004730475022505614FF460214460C1615C
:101D8000FEF788FE08B1FEF7F7FC01200090CDE9D0
:101D9000010469460948FEF7F1FC08B1FEF7ECFCC6
:101DA00069460648CDE90045FEF7E8FC002801D069
:101DB000FEF7E2FC3EBD000000240140E8000020E8
:101DC000094808B5416941F00101416140690022BB
:101DD00000F00100009001210B20FFF77FFABDE821
:101DE00008400B20FFF76CBA0010024070B586B0B7
:101DF000002418480094019402940394816941F0EE
:101E000020018161816901F020010491816941F023
:101E100004018161816901F004010491816941F04B
:101E20000801816180690C4E00F0080040F63F45D2
:101E30000490002229463046FFF7DEF90120009584
:101E4000CDE901040220039069463046FFF7F4F81B
:101E500006B070BD00100240000C01400C4810B5E7
:101E60000A4901604FF416514160002181600C2243
:101E7000C160C0E904128161C161FFF717FE00284B
:101E800003D0BDE81040FEF777BC10BD003801401C
:101E90005C010020FEE7704770477047FFF7B8B954
:101EA00030B593B028216846FEF743F914210AA8FB
:101EB000FEF73FF9002401200F94022504900095BD
:101EC0001020119405901094129407946846FFF71F
:101ED00099FB0F20CDE90A040C940D9400210AA867
:101EE0000E94FFF7A3FA0FA80F951194FFF728FAA5
:101EF00013B030BD704710B5406A0021C185C18460
:101F0000FFF724FD10BD0168CA6822F49072CA6010
:101F100001684A6922F001024A61202180F83A10E2
:101F2000704710B590F83A10222901D0022010BD58
:101F300082684FF480539A4201D1016921B1816ACC
:101F40009A421BD04AB10AE00268816A5268C2F321
:101F500008020A80816A891C08E0026972B102687D
:101F6000526802F07F020A70816A491C8162C18D49
:101F7000491E0904090CC18503D016E002685268A5
:101F8000F1E70168CA6822F02002CA600168CA68E5
:101F900022F48072CA6001684A6922F001024A6133
:101FA000202180F83A10FFF71DFE002010BD000030
:101FB00070B5044600680169E26821F4405111439C
:101FC00001612169A0680843616908432168CA6802
:101FD00041F20C639A430243CA6020684169A269D6
:101FE00021F44071114341611E492068884202D1A9
:101FF000FFF7C2FA01E0FFF7AFFA00EBC00101EB17
:102000000012606864218000B2FBF0F3B3FBF1F3CF
:102010006FF018067343B2FBF0F5B2FBF0F605EB78
:102020008305322303EB0515B5FBF1F5B6FBF1F69D
:1020300005F0F00505EB0615B2FBF0F6B2FBF0F08B
:10204000B0FBF1F06FF01802504306EB800003EB99
:102050000010B0FBF1F0216800F00F002844886008
:1020600070BD0000003801400148FFF771BC00005E
:102070005C010020FEE700000FB4084B10B504A976
:1020800002AA039800F02CF8044602A9002000F0F0
:10209000C8F9204610BC5DF814FB0000232400089A
:1020A0000907090E002804DB00F1E02080F8001485
:1020B000704700F00F0000F1E02080F8141D704719
:1020C00002E008C8121F08C1002AFAD17047704701
:1020D000002001E001C1121F002AFBD1704700005F
:1020E0002DE9FF4F8BB088460546002606E02528DF
:1020F0000BD0DDE90D1290476D1C761C2878002866
:10210000F5D10FB03046BDE8F08F0024A146A246BD
:102110000122AE4900E0044315F8013F203B02FADA
:1021200003F00842F7D128782A2810D06FF02F0248
:102130002878A0F13001092915D809EB890102EBB3
:10214000410144F0020400EB01096D1CF0E758F86E
:10215000041B5FEA010903D544F40054C9F10009E6
:1021600044F002046D1C28782E2817D115F8010FB1
:1021700044F004042A280ED06FF02F022878A0F132
:10218000300109290AD80AEB8A0102EB410100EB70
:10219000010A6D1CF2E758F804AB6D1C28786C2816
:1021A0000FD006DC4C2817D068280DD06A2814D12F
:1021B00004E0742810D07A280FD10DE044F4001404
:1021C0000AE044F4801401E044F440146978814248
:1021D00002D104F580146D1C6D1C2878692865D027
:1021E00006DC00288DD0632827D0642806D15DE066
:1021F0006E2808D073282AD0752877D0DDE90D1213
:102200009047761CE0E0C4F30250022809D003286E
:102210000DD0D8F8001004280DD00E6008F1040885
:10222000D2E0D8F80010F217C1E90062F6E7D8F85A
:1022300000100E80F2E70E70F0E718F8041B8DF81E
:10224000001000208DF80100EB46012003E058F853
:1022500004BB4FF0FF3061074FF0000701D40AE0E4
:102260007F1C57450DDA8742FADB1BF8071000295F
:10227000F6D106E07F1C8742FCDB1BF80710002923
:10228000F8D1DDE90D23A9EB07008146214600F0D6
:10229000B1F83044C61904E0DDE90D121BF8010B5A
:1022A00090477F1EF8D22146484688E058F8040B34
:1022B000C4F302514FF00A0B032900D100B20429E4
:1022C00000D140B2002802DA40422D2102E021056F
:1022D00005D52B218DF82410012104E006E0E1074B
:1022E00010D02021F6E708AF089113E058F8040B4E
:1022F000C4F302514FF00A0B032900D180B2042924
:1023000000D1C0B20021EEE75946FDF7EFFF3031B2
:1023100007F8011D0028F7D1ADEB070000F1200BF5
:10232000600702D524F4803401E04FF0010ADA4559
:1023300002DDAAEB0B0000E00020824600EB0B015F
:1023400008980144A9EB01000A90E00306D4DDE9F6
:102350000D2321460A9800F04DF806444FF000097D
:1023600008E009A911F80900DDE90D12904709F10B
:102370000109761C08998945F3DBE0030CD5DDE9FA
:102380000D2321460A9800F035F8064404E0DDE903
:102390000D1230209047761CBAF10001AAF1010A13
:1023A000F5DC05E0DDE90D1217F8010B9047761C0E
:1023B000BBF10001ABF1010BF4DC0A982146DDE929
:1023C0000D2300F005F806446D1C97E6092801006E
:1023D0002DE9F041044600251E461746880404D422
:1023E00005E039462020B0476D1C641EF9D528460B
:1023F000BDE8F0812DE9F041044600251E469046D7
:10240000C80301D5302700E02027880404D505E063
:1024100041463846B0476D1C641EF9D52846BDE8D4
:10242000F0810A68531C0B601070704710B5064CA1
:10243000012202212046FEF7DFFE20460022BDE8F1
:1024400010400221FEF7D8BE000C014010B5044632
:10245000002201210348FEF7CFFE2046BDE81040D0
:1024600000F010B8000C014010B5044601221146DE
:102470000348FEF7C1FE2046BDE8104000F002B858
:10248000000C014070B500F00F0405090120FEF7B3
:10249000C1FD284600F054F8FFF7C8FF204600F0C1
:1024A0004FF8BDE87040FFF7C1BF0000FEF7B8FE6F
:1024B000FFF7F6FCFFF79AFCFFF782FCFFF74EFCF4
:1024C000FFF7CCFCFFF7E6FBFFF7D0FB12A0FFF70E
:1024D0001DFC09210120FFF725FC11A0FFF716FCC8
:1024E00001210220FFF71EFC0EA0FFF70FFC0921BF
:1024F0000220FFF717FC0DA0FFF708FC01220C4992
:102500000C48FFF745FB02220B490C48FEF7A0FBE5
:102510006420FEF77FFDF6E754203D200000000018
:102520004445470049203D20000000004C5558001C
:10253000C00000205C01002030000020E8000020E6
:1025400070B50E4D0446C0F3C00220212846FEF7A8
:1025500053FEC4F3800210212846FEF74DFEC4F35B
:10256000400208212846FEF747FE04F001022846F3
:10257000BDE870400421FEF73FBE0000000C0140A2
:102580000000000000000000010203040607080923
:1025900000000000010203044C616D70205475724C
:1025A0006E6564204F66660D00000000486561742A
:1025B0006572205475726E6564204F66660D00006A
:1025C0004F66660D000000004D6F64652053657412
:1025D00020746F204D616E75616C0D004C616D70E3
:1025E000205475726E6564204F6E0D0048656174ED
:1025F0006572205475726E6564204F6E0D00000088
:102600004F6E0D004D6F64652053657420746F200C
:102610004175746F0D00000038260008000000208E
:10262000C0000000C0200008F8260008C0000020FC
:10263000E0040000D02000080000000001000000BD
:102640000100000000000000000000000100000088
:10265000000000000000000000000000E80300008F
:10266000000000000000000000000000000000006A
:10267000D425000810260008C02500080026000800
:1026800004260008C8250008AC250008EC25000831
:1026900098250008DC250008F401000084030000F0
:1026A000E803000020030000D0070000BC02000087
:1026B000881300005802000010270000F4010000F9
:1026C000204E00009001000050C300002C010000CB
:1026D000A0860100C8000000400D03006400000057
:1026E00040420F0000000000010000001000000048
:0826F000000000000024F400CA
:04000005080000ED02
:00000001FF
