:020000040800F2
:10000000D0040020010100086B1D0008331A00080D
:10001000691D00089B080008772000080000000008
:100020000000000000000000000000006F1D00083C
:100030009D080008000000006D1D0008711D0008EB
:100040001B0100081B0100081B0100081B01000820
:100050001B0100081B0100081B0100081B01000810
:100060001B0100081B0100081B0100081B01000800
:100070001B0100081B0100081B0100081B010008F0
:100080001B0100081B0100081B0100081B010008E0
:100090001B0100081B0100081B0100081B010008D0
:1000A0001B0100081B0100081B010008BD1D000802
:1000B0001B0100081B010008000000001B010008D4
:1000C0001B01000800000000000000001B010008E8
:1000D000000000001B0100081B01000800000000D8
:1000E0001B0100081B0100081B010008DFF80CD0F1
:1000F00000F070FB00480047F9270008D0040020FA
:100100000648804706480047FEE7FEE7FEE7FEE7B1
:10011000FEE7FEE7FEE7FEE7FEE7FEE7BB1D0008A1
:10012000ED000008202A04DB203A21FA02F0002129
:10013000704721FA02F3D040C2F1200291400843F7
:1001400019467047D2B201E000F8012B491EFBD2DC
:1001500070470022F6E710B513460A4604461946D2
:10016000FFF7F0FF204610BD2DE9FE4F804681EAE3
:100170000300C00F0C46009021F0004123F0004521
:10018000B8EB0200A94105D24046214690461C46E4
:100190000B46024623F00040104347D0270DC7F31B
:1001A0000A00C3F30A510290401A019040286BDA0A
:1001B000C3F3130040F4801B0098924620B1002343
:1001C000D2EB030A63EB0B0B01985946C0F14002D6
:1001D000504600F0BEF906460D4650465946019A73
:1001E00000F0C6F910EB08006141002487EA1152C3
:1001F00084EAE7731A4340D0009A62B3019A012A55
:100200004FEA075215DC001B61EB02014FF0004280
:1002100002EA0752CDE90042001C41F58011324646
:100220002B4600F0FDF903B0BDE8F08F40462146B3
:10023000F9E7001B61EB0201001C41F58013001877
:100240005B412018A2F5001747EB030140EAD57087
:10025000B6196D4111E06D084FEA360645EAC075E2
:100260004FEA0752001B61EB0201001C41F58011AF
:1002700049084FEA30000019514132462B4603B07D
:10028000BDE8F04F00F0BDB9009801224000002306
:10029000D0EB020263EBE073009821464FEAE07472
:1002A000B8EB000061EB0401E9E783F000435BE792
:1002B00081F0004158E72DE9FE4F81EA030404F084
:1002C000004421F0004100944FF0000B23F0004364
:1002D00050EA01045ED052EA03045BD0C3F30A542F
:1002E000C1F30A552C44A4F2F3340194A0FB025448
:1002F000C1F3130141F48011C3F3130343F48013DA
:1003000001FB024400FB034E840A970A44EA81542D
:1003100047EA8357A4FB076802958D0A05FB07850A
:100320004FEA932C04FB0C542705029D4FEA065814
:1003300047EA1637B5EB08056EEB070C870E920EF1
:1003400047EA811742EA8312A7FB0201B6EB0B01D1
:1003500064EB00042B0D43EA0C335E1844EB1C5095
:10036000DA465146E7FB0201C5F313044FEA0B33AB
:1003700043EA14534FEA0432019C43EA0603A4F112
:100380000C040294009CCDE900B400F049F903B0DC
:10039000BDE8F08F00200146F9E72DE9F04D81EA34
:1003A000030404F0004B21F0004514464FF0000A0E
:1003B00023F0004150EA050220D054EA01021DD08A
:1003C000C5F30A570246C5F31303C1F31300C1F383
:1003D0000A5640F4801543F48013A7EB0608101B5F
:1003E000D64608F2FD3873EB050002D308F1010888
:1003F00001E092185B41B8F1000F03DA00200146DA
:10040000BDE8F08D00204FF48011064684460EE0D2
:10041000171B73EB050705D3121B63EB050306439C
:100420004CEA010C49084FEA300092185B4150EA4F
:100430000107EDD152EA030012D082EA040083EAF8
:100440000501084305D0101BAB4106D20122002351
:1004500006E000224FF0004302E06FF0010253106B
:100460001AEB06004CEB085110EB0A0041EB0B01B4
:10047000BDE8F04D00F0C5B8C10F80EAE070084457
:10048000CA079623002100F08EB870B5C1F30A5256
:1004900001F000450024C1F3130140F2FF3341F4A1
:1004A00080119A4201DA002070BD40F233439A4233
:1004B000A2F2334203DC5242FFF734FE00E09040E8
:1004C0002C43F1D0404270BD00F0004230F00040BB
:1004D0000AD0C10D01F56071C0F3160042EA015166
:1004E000C20840071143704700200146704701F0E1
:1004F000004330B421F0004150EA010206D00A0D59
:10050000A2F56072C1F31301002A02DC30BC0020A6
:100510007047440F44EAC104C100E01830BC00EB4E
:10052000C25000F037B830B50B46014600202022FB
:10053000012409E021FA02F59D4205D303FA02F5F0
:10054000491B04FA02F52844151EA2F10102F1DC50
:1005500030BD202A04DB203A00FA02F10020704767
:100560009140C2F1200320FA03F3194390407047F1
:10057000202A06DBCB17203A41FA02F043EAE07367
:1005800006E041FA02F3D040C2F120029140084354
:10059000194670470029A8BF7047401C490008BF92
:1005A00020F00100704710B4B0FA80FC00FA0CF0A3
:1005B00050EA010404BF10BC704749B1CCF12004DB
:1005C00021FA04F411FA0CF118BF01212143084368
:1005D000A3EB0C01CB1D4FEA00614FEA102042BF94
:1005E000002010BC704700EBC35010440029A4BF8A
:1005F00010BC7047401C490008BF20F0010010BC2F
:10060000704710B5141E73F1000408DA401C41F164
:10061000000192185B411A4301D120F0010010BD86
:100620002DE9F04D92469B4611B1B1FA81F202E0FC
:10063000B0FA80F220329046FFF78BFF04460F4657
:1006400040EA0A0041EA0B0153465A46084313D0D8
:10065000114653EA010019D0C8F140025046FFF795
:1006600061FD05460E46504659464246FFF771FF6A
:10067000084305D0012004E020463946BDE8F08D4E
:100680000020054346EAE0762C4337430A98630589
:10069000E40AA0EB08000022FD0A44EA47540A30AD
:1006A00002D500200146E9E7010510196941DDE99D
:1006B000084500196941BDE8F04DA2E770B521F089
:1006C000004303430CD0C1F30A550024D5EB0405C5
:1006D00064EB0403D617AD1AB34102DB00200146D8
:1006E00070BD201841EB025170BD00002DE9F041B2
:1006F000054621F000400C46284309D0C4F30A50B7
:1007000040F23341884205DD28462146BDE8F081AC
:100710002846FBE740F2FE31884210DC0CDB4FEA52
:10072000043040EA155050EA053105D0104804F075
:10073000004101430020E9E700200146E6E7A0F27E
:1007400033404642C6F1400228462146FFF701FFEA
:1007500007468846284621463246FFF7E3FC4346D3
:100760003A46FFF74EFF3246BDE8F041FFF7F1BED3
:100770000000F03F30B5041E71F1000404DB4FF0BF
:100780000044404264EB0101141E73F1000405DBD8
:100790001C464FF00043524263EB04038B4208BFF8
:1007A000824230BD30B5041E71F1000404DB4FF00D
:1007B0000044404264EB0101141E73F1000405DBA8
:1007C0001C464FF00043524263EB0403994208BFBA
:1007D000904230BD064C074D06E0E06840F0010352
:1007E00094E8070098471034AC42F6D3FFF782FC38
:1007F000002A0008202A00082DE9F04D00231A469F
:100800001B1A8A4103DB00200146BDE8F08DC1F3CD
:100810000A52C1F3130141F480154FF0000BD107C8
:1008200002D100186D41521E0027044640F2FF110C
:10083000384601EB620A3E468046024600204FF4ED
:100840008011FFF76FFCC2197141BB1846EB010024
:10085000B4EB030C75EB000C04D3E41A65EB000554
:1008600017460E46241908F101006D4180463428D0
:10087000E3DDF91946EB0600091BA84103D24FF04E
:10088000FF32134601E0002213461BEB070046EB44
:100890000A51BDE8F04DFFF7B4BEFEE77047704760
:1008A00070B5044600F0FCF80546601C02D0044810
:1008B0000078044400F0F4F8401BA042FAD370BD65
:1008C000280000202DE9F84FDFF89C91002409F161
:1008D000040A0AF1040B23460F270BF1040EBBE0B8
:1008E0000125A5402A40AA4276D1DFF880C14E6892
:1008F000A6EB0C0866452BD00DDC032E34D005DCAE
:1009000036B3012E19D0022E2FD11BE0112E16D096
:10091000122E2AD119E0B8F5881F19D006DCB8F5D7
:10092000803F15D0B8F5801F1FD111E0B8F5001F2A
:100930000ED0B8F5041F18D10AE0CB6815E0CB68DB
:100940001B1D12E0CB6808330FE0CB680C330CE0C2
:100950008B682BB1012B4FF0080303D0456104E0F5
:10096000042302E0056100E00023FF2A01D80646C7
:1009700001E000F104064FEA840501D9A5F1200544
:10098000D6F8008007FA05FC28EA0C0803FA05F5FA
:1009900048EA0508C6F800804D68ED005BD5344D87
:1009A000AE6946F00106AE61AD6924F0030605F0BC
:1009B000010500952F4D06EB050CDCF80850A60745
:1009C000360F07FA06F825EA0805DFF8AC8040453F
:1009D00003D14FF0000810E03DE0DFF8A080404573
:1009E00002D14FF0010808E0DFF89480404502D1C1
:1009F0004FF0020801E04FF0030808FA06F848EA51
:100A00000508CCF808804D68D9F80060ED034D4624
:100A100001D5164300E096432E604D68DAF8006079
:100A2000AD03554601D5164300E096432E604D6850
:100A3000DBF80060ED025D4601D5164300E0964309
:100A40002E604D68DEF80060AD02754601D5164394
:100A500000E096432E60641C0A6832FA04F57FF4C5
:100A60003FAFBDE8F88F0000000401400000111006
:100A7000001002400000014000080140000C01404D
:100A800000100140C26821EA02030A4043EA024121
:100A9000016170470AB1016170470904FBE700007A
:100AA00001488068704700002800002002488168E3
:100AB000027811448160704728000020074810B573
:100AC000016841F010010160032000F075F800207A
:100AD00000F006F800F024F8002010BD00200240CD
:100AE00070B50D4D04464FF47A712878B1FBF0F0E3
:100AF0000A490968B1FBF0F000F0CCFA48B9102CB3
:100B000007D200222146501E00F036F800206C600B
:100B100070BD012070BD00002800002034000020BE
:100B20000C4808B5816941F001018161816901F0DA
:100B300001010091C16941F08051C161C06900F0BB
:100B4000805000900448416821F0E06141F08061EC
:100B5000416008BD0010024000000140002809DB90
:100B600000F01F02012191404009800000F1E020C7
:100B7000C0F8001170470000F0B40E4B1B680C4623
:100B8000C3F30223C3F10705042D00D90425191D61
:100B9000072901D2002300E0DB1E012606FA05F139
:100BA000491E214099409E40761E16403143F0BCBC
:100BB00001F076BA0CED00E0064900F00702086883
:100BC0004FF6FF03184040EA0220034A1043086032
:100BD000704700000CED00E00000FA052DE9F04739
:100BE0000F46050061D0434E306800F00700B84260
:100BF00009D2306820F0070038433060306800F0D8
:100C00000700B84251D128683B4C810712D54007F4
:100C100003D5606840F4E06060602878000703D581
:100C2000606840F4605060606068A96820F0F0007F
:100C3000084360602878C00728D06868012810D071
:100C40002168022810D0890700292EDA616821F076
:100C5000030101436160FFF723FF804641F28839B9
:100C60000DE021688903EFE78901EDE7FFF718FF41
:100C7000A0EB0801494502D90320BDE8F087606870
:100C8000696800F00C00B0EB810FEFD1306800F024
:100C90000700B8420BD9306820F0070038433060B5
:100CA000306800F00700B84201D00120E5E728785D
:100CB000400705D56068E96820F4E060084360609B
:100CC0002878000706D56068296920F4605040EA5A
:100CD000C100606000F018F86168084AC1F30311B0
:100CE000515CC8400649086006480068FFF7F8FEF6
:100CF0000020C2E70020024000100240A0290008A6
:100D0000340000202C00002012A185B00FC98DE80E
:100D10000F0014A0144A006804905168134801F0B1
:100D20000C03042B10D0082B0ED1C1F38343C9034D
:100D30001DF803000AD5516804AAC1F34041515C73
:100D40000A4A5043B0FBF1F005B0704708494843E8
:100D5000FAE7000002030405060708090A0B0C0D58
:100D60000E0F1010010200000010024000127A0065
:100D700000093D002DE9F84F040070D02078C04DE7
:100D8000C00749D06868C0F38100012807D06868AF
:100D9000C0F38100022809D16868C00306D528681D
:100DA000800339D560680028E7D035E06068B0F589
:100DB000803F0BD010B1B0F5A02F11D0286820F4DF
:100DC00080302860286820F4802002E0286840F401
:100DD00080302860606890B1FFF762FE06460AE046
:100DE000286840F480202860F0E700BFFFF758FE35
:100DF000801B642873D828688003F7D50CE0FFF7C0
:100E00004FFE064605E000BFFFF74AFE801B642840
:100E1000F0D828688003F7D420789A4E80074FF0E6
:100E200001094FF0000839D5686810F00C0F07D0A1
:100E30006868C0F38100022809D16868C00306D43D
:100E40002868800714D52069012808D110E020699E
:100E5000B0B1C6F80090FFF723FE074605E00AE1AF
:100E6000FFF71EFEC01B0228C4D828688007F7D5EC
:100E70002868616920F0F80040EAC10028600DE0B0
:100E8000C6F80080FFF70CFE074604E0FFF708FEF7
:100E9000C01B022823D828688007F7D420780007D1
:100EA0002CD57948A169D9B1C0F80090FFF7F8FDB9
:100EB000074604E0FFF7F4FDC01B02280FD8686A5C
:100EC0008007F7D571484FF4FA510068B0FBF1F094
:100ED000009000BF0098411E0091FAD20EE080E021
:100EE000C0F80080FFF7DCFD074604E0FFF7D8FDFF
:100EF000C01B022875D8686A8007F7D4207840079D
:100F000060D5E8690027C00008D4E86940F0805047
:100F1000E861E869012700F0805000905C480168B2
:100F2000C90513D40168834641F480710160FFF75D
:100F3000B7FD824606E000BFFFF7B2FDA0EB0A0056
:100F400064284ED8DBF80000C005F5D5E06801281C
:100F50000AD008B1052813D0286A20F001002862C1
:100F6000286A20F0040002E0286A40F001002862AC
:100F7000E06841F2883B98B1FFF792FD82460BE0B2
:100F8000286A40F004002862EEE700BFFFF788FD02
:100F9000A0EB0A0159455AD8286A8007F6D50CE01B
:100FA000FFF77EFD824605E0FFF77AFDA0EB0A0120
:100FB00059454CD8286A8007F6D41FB1E86920F05B
:100FC0008050E861E06988B36968C1F38101022952
:100FD00044D00228C6F8608004D0FFF761FD0446C3
:100FE00038E034E0FFF75CFD074604E0FFF758FD0A
:100FF000C01B02282BD828688001F7D4206AB0F5DE
:10100000803F05D16868A16820F40030084368601B
:10101000D4E908010843696821F474110843686041
:10102000C6F86090FFF73CFD044606E025E000BFEF
:10103000FFF736FD001B022809D828688001F7D584
:101040001BE000BFFFF72CFD001B022802D9032084
:10105000BDE8F88F28688001F4D40EE00128F7D0AD
:101060006868226A00F48031914204D1616A00F418
:101070007010884201D00120EAE70020E8E7000074
:10108000001002400000424280044242340000202E
:101090000070004010B5401EB0F1807F01D30120E8
:1010A00010BD4FF0E02460610F21601700F0F8FFE1
:1010B0000020A06107202061002010BD704770470C
:1010C00010B590F83C20012A22D0012280F83C2063
:1010D000CA688C6822F4407222434C6822F4806211
:1010E00022430C6822F4006222430C6922F48052ED
:1010F00022434C6922F400522243C969002322F49E
:1011000080420A4301684A6480F83C30002010BDE8
:10111000022010BD70B590F83C20012A23D0012494
:1011200080F83C40022280F83D2003685A689D68A0
:1011300022F070060A6832435A600C4B02689A42E9
:1011400005D0B2F1804F02D0094B9A4204D14968D0
:1011500025F080031943916080F83D40002180F81C
:101160003C10084670BD022070BD0000002C0140FC
:101170000004004010B5040003D094F83D0010B105
:1011800007E0012010BD002084F83C00204600F05C
:101190001FF8022084F83D00211D206800F014FE95
:1011A000012084F8460084F83E0084F83F0084F86B
:1011B000400084F8410084F8420084F8430084F839
:1011C000440084F8450084F83D00002010BD000074
:1011D00000B585B000210091019102910391194A57
:1011E00001681948914220D1816941F4006181610F
:1011F000816901F400610491816941F00401816118
:101200008069694600F0040004904FF4407000903B
:101210000E48FFF757FB002211461B20FFF7ACFCDE
:101220001B20FFF79BFC05B000BD094A9142FAD193
:10123000C16941F00201C161C06900F0020004907F
:10124000F1E70000002C01400010024000080140BE
:101250000004004070B5044690F83C00012817D007
:10126000012584F83C50022084F83D002068826803
:1012700022F0770222F47F4282600868502830D042
:101280000DDC20284DD005DC98B310283BD148E078
:10129000022070BD302844D0402834D139E0602885
:1012A00028D0702806D0B0F5805F2CD0B0F5005F54
:1012B00029D10AE0CB68D1E90121206800F0BFFD07
:1012C0002068816841F0770109E0CB68D1E901210C
:1012D000206800F0B4FD2068816841F4804181609D
:1012E00011E0CA684968206800F05EFE502120685D
:1012F00007E016E0CA684968206800F08FFE6021A8
:10130000206800F0A6FD84F83D50002084F83C00E1
:1013100070BDCA684968206800F046FE4021206818
:10132000EFE7226801461046EBE7000070B5374E44
:10133000374C0546B04207D1287F012804D100214F
:10134000284600F060FBA060B54202D1287F022849
:1013500010D06068012858D100206060D4E90210E4
:1013600088420FDD401A206101212A48FFF78AFBDD
:1013700020690DE00421284600F045FBE0600120D3
:101380006060E9E73268D26A511A0844401C206163
:10139000AA21484342F21071606190FBF1F0401CB9
:1013A000A061C11E1C4C1B292BD8FFF765F8FFF765
:1013B0008BF80022194BFEF7F0FF01F09BF8184D57
:1013C00000222B46FEF777FF164A174BFEF7E5FF84
:1013D000FFF78DF8FFF778F800222B46FEF7DDFFC8
:1013E0000022124BFEF7C0FEFFF781F8FFF76CF802
:1013F00000220F4BFEF75FFF01F03EFAFFF745F8C2
:1014000001E040F2E7302168486370BD3C000020F5
:101410000C000020000801408400002000003E4035
:10142000008066406F1283C0CA2109400000F03F6F
:1014300000408F402DE9F041054690F83C000C46F5
:10144000012836D0012085F83C008AB3042A42D016
:101450002868082A51D0D4E90023E168066A26F4F6
:1014600080560662C669076A26F4407646EA032378
:101470004FF6FF7606EA013123F4704319434FF427
:10148000005627F4005306EA02321A43C161026291
:101490002868C16921F44061C1612868C169A268F6
:1014A00041EA0221C161002085F83C00BDE8F081DD
:1014B00001E00220FAE7D4E90012E368286800F0AE
:1014C00085FD2868816921F00C01816128688169A6
:1014D000A26811430FE0D4E90012E368286800F025
:1014E000AFFD2868816921F44061816128688169C4
:1014F000A26841EA02218161D5E7D4E90027267B71
:10150000016A21F480710162C169036A21F003015B
:10151000394321F0F00731074FF4007647EA1161B3
:1015200023F4007306EA02221A43C16102622868AA
:10153000C16921F00C01C1612868C169A268114329
:10154000B0E710B5040003D094F83D0010B107E0F7
:10155000012010BD002084F83C00204600F01EF859
:10156000022084F83D00211D206800F02DFC0120A0
:1015700084F8460084F83E0084F83F0084F8400078
:1015800084F8410084F8420084F8430084F8440061
:1015900084F8450084F83D00002010BD704700002D
:1015A00010B5044651B104290DD0082910D094F883
:1015B000410094F84520012811D10EE094F83E0036
:1015C00094F84220F7E794F83F0094F84320F2E7BC
:1015D00094F8400094F84420EDE7012A01D001205E
:1015E00010BD022051B1042911D0082918D084F867
:1015F000410084F845000C291BD133E084F83E00FB
:1016000084F842002068C26842F0020210E084F8C8
:101610003F0084F843002068C26842F0040207E0FB
:1016200084F8400084F844002068C26842F0080250
:10163000C2600122206800F0F5FB0D492068884255
:1016400005D0B0F1804F02D00A49884204D18168A8
:1016500001F00701062903D0016841F00101016092
:10166000002010BD2068C26842F01002E0E70000D0
:10167000002C01400004004070B504460068016978
:101680004FF00005C943890715D4C168C9438907CC
:1016900011D4E91E0161012020772068806980074C
:1016A000204602D0FFF742FE04E000F0CDF82046CD
:1016B00000F05CF9257720680169C943490717D410
:1016C000C168C943490713D46FF0040101610220C6
:1016D00020772068806910F4407F204602D0FFF711
:1016E00025FE04E000F0B0F8204600F03FF9257731
:1016F00020680169C943090716D4C168C9430907AD
:1017000012D46FF008010161042020772068C069BD
:101710008007204602D0FFF709FE04E000F094F8AD
:10172000204600F023F9257720680169C943C906DE
:1017300017D4C168C943C90613D46FF01001016101
:10174000082020772068C06910F4407F204602D02E
:10175000FFF7ECFD04E000F077F8204600F006F912
:10176000257720680169C943C90708D1C168C94301
:10177000C90704D1891E0161204600F043F92068A1
:101780000169C943090609D4C168C943090605D4DA
:101790006FF0800101612046FFF790FC206801692D
:1017A000C943490609D4C168C943490605D46FF045
:1017B00040010161204600F03BF920680169C943FE
:1017C00089060BD4C168C943890607D46FF020018C
:1017D00001612046BDE87040FFF771BC70BD00009C
:1017E00010B586B000210091019102910391124C35
:1017F0000368124902221248A34209D18B6943F0BF
:1018000004038B61896901F00401049101150BE067
:101810000C4CA3420ED18B6943F004038B618969A0
:1018200001F0040104914021CDE9001269460392C0
:10183000FFF748F806B010BD002C01400010024030
:101840000008014000040040704770B5044690F85D
:101850003C000D4601280AD0012084F83C0042B12A
:10186000042A18D0082A2AD00C2A4DD139E00220A7
:1018700070BD206800F0F6FA2068816941F0080127
:1018800081612068816921F004018161206881699A
:101890002A69114311E0206800F00CFB206881697F
:1018A00041F4006181612068816921F48061816176
:1018B000206881692A6941EA0221816124E0206867
:1018C00000F024FB2068C16941F00801C161206873
:1018D000C16921F00401C1612068C1692A6911430D
:1018E00011E0206800F03EFB2068C16941F400610E
:1018F000C1612068C16921F48061C1612068C1694A
:101900002A6941EA0221C161002084F83C0070BDCF
:1019100010B5040003D094F83D0010B107E0012099
:1019200010BD002084F83C00204600F01EF8022084
:1019300084F83D00211D206800F046FA012084F85B
:10194000460084F83E0084F83F0084F8400084F8A4
:10195000410084F8420084F8430084F8440084F88D
:10196000450084F83D00002010BD7047704700001E
:1019700010B50446022249B104290ED0082913D01B
:1019800094F84100012816D0012010BD94F83E00C3
:101990000128F9D184F83E200FE094F83F00012897
:1019A000F2D184F83F2008E094F840000128EBD100
:1019B00084F8402001E084F841200122206800F0F2
:1019C00031FA0E492068884203D1426C42F4004249
:1019D00042642068884205D0B0F1804F02D00849A7
:1019E000884204D1816801F00701062903D001680B
:1019F00041F001010160002010BD0000002C0140F9
:101A00000004004070470246002041B1042909D07B
:101A100008290AD00C2901D11068006C70471068A1
:101A2000406B70471068806B70471068C06B7047E0
:101A30007047FEE7084810B5012141608160002130
:101A40000160012000F0A6FE022000F0A3FEBDE828
:101A500010400A20FEF724BF0000002010B5FFF759
:101A6000E9FF282000F096FE062000F093FE0C20EF
:101A700000F090FEBDE810400A20FEF711BF000004
:101A800070B5134C01252168491C2160102905DA25
:101A900000F090FEA068401CA06070BD09D100F06D
:101AA00089FE01210220A56000F020F8022060607C
:101AB00070BD11390F29EBD300F07CFE01210846DF
:101AC000A56000F013F80020C4E9000570BD000017
:101AD0000000002010B5044603E000BFFFF7D0FF70
:101AE000641C20780028F9D110BD000070B50C4DA1
:101AF0000C46064601280CD0022E09D104F1BF0085
:101B0000C0B200F047FE04F10F00AC60C5E900066A
:101B100070BD04F17F00C0B200F03CFE601EF4E72F
:101B2000000000202DE9F04186B0002420480094F8
:101B3000019402940394816941F0200181618169DB
:101B400001F020010491816941F004018161816902
:101B500001F004010491816941F00801816180690B
:101B6000144F00F008004FF60105049000222946AA
:101B70003846FEF78FFFDFF8408000220121404603
:101B8000FEF788FF0095022601250396CDE9015452
:101B900069463846FEF796FE03960095CDE9015456
:101BA00069464046FEF78EFE06B0BDE8F0810000B3
:101BB0000010024000080140000C014030B599B00F
:101BC00000241394149415941694179418940F9455
:101BD000109411941C2108A81294FEF7BAFA20213F
:101BE0006846FEF7B6FA3748354901600721C0E973
:101BF00001144EF65F21C0E9031444618461FFF7CC
:101C0000B9FA08B1FEF74BFE4FF48050139013A9B8
:101C10002C48FFF71FFB08B1FEF741FE2948FFF7EC
:101C200090FC08B1FEF73BFE2648FFF771FE08B1B5
:101C3000FEF735FE179417A922481894FFF76AFAA1
:101C400008B1FEF72CFE0120CDE90F4011940022CF
:101C50000FA91C481294FFF7EDFB08B1FEF71FFE19
:101C6000022504220FA917480F95FFF7E3FB08B1DF
:101C7000FEF715FE602008900A200990CDE90A546D
:101C80000C940D94082208A90E480E94FFF7DDFD70
:101C900008B1FEF704FE00944FF40050CDE9044073
:101CA000029401940394694606480794FFF708FAE2
:101CB00008B1FEF7F4FD0348FFF792FD19B030BDFF
:101CC000002C01403C00002010B58EB00024079489
:101CD000089409940A940B941C2168460C94FEF70E
:101CE00038FA20481E4901600721C0E9011444F672
:101CF0001F61C0E903148461FFF73CFA08B1FEF7E5
:101D0000CEFD4FF48050079007A91648FFF7A2FABE
:101D100008B1FEF7C4FD1348FFF7FAFD08B1FEF75E
:101D2000BEFD0B940BA90F480C94FFF7F3F908B113
:101D3000FEF7B5FD6020009040F2E73001900220F0
:101D400002900022694604940648FFF77EFD08B120
:101D5000FEF7A5FD0348FFF743FD0EB010BD0000E0
:101D60000004004084000020FEE770477047704781
:101D7000FEF79CBE30B58FB028216846FEF7E9F922
:101D800014210AA8FEF7E5F9012002250490009528
:101D9000102005900024CDE9075468460994FEF709
:101DA000E9FF0F200A90CDE90B540D9400210AA8F9
:101DB0000E94FEF713FF0FB030BD70470148FFF7D8
:101DC0005BBC00003C00002070B50268134B144C53
:101DD0004FF08046984203D0B04201D0A04203D1D8
:101DE00022F070054A682A43984203D0B04201D0DD
:101DF000A04203D122F44074CA6822434C6922F005
:101E00008002224302608A68C2620A688262984243
:101E100001D1096901630121416170BD002C0140BC
:101E20000004004010B501F01F030121046A99402D
:101E30008C430462016A9A401143016210BD10B5DF
:101E4000846842EA032224F47F440A4322438260E6
:101E500010BD826822F070020A4342F007018160DF
:101E60007047000030B5026A22F001020262026A85
:101E70004368846924F073050C682C4322F0020542
:101E80008A682A430A4DA8420BD122F00805CA6885
:101E900023F440732A434D6922F004021D438B69E9
:101EA0002B434360846149684163026230BD000096
:101EB000002C014030B5026A22F010020262026A70
:101EC000436884690D6824F4E64444EA05248D6877
:101ED00022F0200242EA05120B4DA8420ED1CD6835
:101EE00022F0800242EA05124D6923F4406343EA7E
:101EF00085038D6922F0400243EA850343608461D3
:101F000049688163026230BD002C014030B5026A2D
:101F100022F480720262036A4268C46923F4007387
:101F200024F073050C682C438D6843EA05230C4D9F
:101F3000A8420ED1CD6823F4006343EA05234D691E
:101F400022F4405242EA05128D6923F4806342EA8A
:101F500005124260C4614968C163036230BD00007C
:101F6000002C014030B5026A22F480520262046AF9
:101F70004268C3690D6823F4E64343EA05238D688C
:101F800024F4005444EA0534064DA84204D14D69B6
:101F900022F4804242EA85124260C36149680164CA
:101FA000046230BD002C014010B5036A046A24F0BD
:101FB00001040462846924F0F00444EA021423F06A
:101FC0000A020A438461026210BD000070B5046A0F
:101FD00024F0010404628469056A0E4EB04205D003
:101FE000B0F1804F02D00C4EB04203D124F0030474
:101FF000144301E044F001041A0724F0F00444EA19
:10200000126225F00A0301F00A011943826101629C
:1020100070BD0000002C01400004004010B5036AB0
:1020200023F0100303628369046A23F4704343EAD4
:10203000023224F0A00343EA01118261016210BD63
:1020400030B5046A24F0100404628469056A24F43B
:10205000407444EA022222F470444FF6FF7202EA0E
:1020600003322243A02425F0A00304EA01111943FE
:102070008261016230BDFEE70FB4084B10B504A9C0
:1020800002AA039800F090F8044602A9002000F08C
:102090002CFA204610BC5DF814FB0000EB2400086D
:1020A0000907090E002804DB00F1E02080F8001485
:1020B000704700F00F0000F1E02080F8141D704719
:1020C0002DE9F0414F1E00EBC7010446D1E90001A4
:1020D00015461E4637F006020DD02A463346FEF757
:1020E000EAF87F1E04EBC703D3E90023FEF73CF8B0
:1020F00037F00602F1D1022F25D0042F13D0062F7E
:1021000018BFBDE8F0812A463346FEF7D4F8D4E97B
:102110000A23FEF729F82A463346FEF7CCF8D4E91D
:102120000823FEF721F82A463346FEF7C4F8D4E91F
:102130000623FEF719F82A463346FEF7BCF8D4E921
:102140000423FEF711F82A463346FEF7B4F8D4E923
:102150000223FEF709F82A463346FEF7ACF8D4E925
:102160000023BDE8F041FDF7FFBF0122FEF7A6BA4C
:102170000022134610461146FEF70FB902E008C8C8
:10218000121F08C1002AFAD170477047002001E0F1
:1021900001C1121F002AFBD17047000001490860ED
:1021A00070470000380000202DE9FF4F8BB08846B3
:1021B0000546002606E025280BD0DDE90D129047E4
:1021C0006D1C761C28780028F5D10FB03046BDE88C
:1021D000F08F0024A146A2460122AE4900E004434C
:1021E00015F8013F203B02FA03F00842F7D12878A6
:1021F0002A2810D06FF02F022878A0F13001092989
:1022000015D809EB890102EB410144F0020400EB0F
:1022100001096D1CF0E758F8041B5FEA010903D5BA
:1022200044F40054C9F1000944F002046D1C2878FC
:102230002E2817D115F8010F44F004042A280ED0D7
:102240006FF02F022878A0F1300109290AD80AEB93
:102250008A0102EB410100EB010A6D1CF2E758F81C
:1022600004AB6D1C28786C280FD006DC4C2817D0E6
:1022700068280DD06A2814D104E0742810D07A2878
:102280000FD10DE044F400140AE044F4801401E09E
:1022900044F440146978814202D104F580146D1C25
:1022A0006D1C2878692865D006DC00288DD063284D
:1022B00027D0642806D15DE06E2808D073282AD084
:1022C000752877D0DDE90D129047761CE0E0C4F365
:1022D0000250022809D003280DD0D8F80010042895
:1022E0000DD00E6008F10408D2E0D8F80010F21703
:1022F000C1E90062F6E7D8F800100E80F2E70E7030
:10230000F0E718F8041B8DF8001000208DF801008C
:10231000EB46012003E058F804BB4FF0FF306107A3
:102320004FF0000701D40AE07F1C57450DDA8742C1
:10233000FADB1BF807100029F6D106E07F1C874264
:10234000FCDB1BF807100029F8D1DDE90D23A9EB10
:1023500007008146214600F0B1F83044C61904E078
:10236000DDE90D121BF8010B90477F1EF8D22146C4
:10237000484688E058F8040BC4F302514FF00A0BAA
:10238000032900D100B2042900D140B2002802DAAA
:1023900040422D2102E0210505D52B218DF8241086
:1023A000012104E006E0E10710D02021F6E708AFA4
:1023B000089113E058F8040BC4F302514FF00A0BD4
:1023C000032900D180B2042900D1C0B20021EEE778
:1023D0005946FEF7A8F8303107F8011D0028F7D15B
:1023E000ADEB070000F1200B600702D524F4803428
:1023F00001E04FF0010ADA4502DDAAEB0B0000E034
:102400000020824600EB0B0108980144A9EB010073
:102410000A90E00306D4DDE90D2321460A9800F076
:102420004DF806444FF0000908E009A911F8090029
:10243000DDE90D12904709F10109761C08998945DB
:10244000F3DBE0030CD5DDE90D2321460A9800F00B
:1024500035F8064404E0DDE90D1230209047761C83
:10246000BAF10001AAF1010AF5DC05E0DDE90D127F
:1024700017F8010B9047761CBBF10001ABF1010B83
:10248000F4DC0A982146DDE90D2300F005F8064446
:102490006D1C97E6092801002DE9F041044600254E
:1024A0001E461746880404D405E039462020B0476C
:1024B0006D1C641EF9D52846BDE8F0812DE9F04178
:1024C000044600251E469046C80301D5302700E08B
:1024D0002027880404D505E041463846B0476D1CE6
:1024E000641EF9D52846BDE8F0810A68531C0B60CC
:1024F000107070472DE9F04D0546DFF8388221F065
:1025000000408D4F82B00C46404520DBA0EB080117
:1025100029430BD08949884201DC10D17DB102B03A
:1025200028462146BDE8F04DFFF71FBE002CC7BF6F
:10253000002001468248394602B0BDE8F08D0120F6
:10254000FFF72CFE02B0BDE8F04DFFF711BE7D494C
:10255000884244DA7C498142A1BF79487B4902B074
:10256000BDE8F08D2A46234610461946FDF7A3FE26
:102570008346024676480E460B4606217844FFF70E
:102580009FFD5A463346FDF796FE074671488A4638
:102590005A46334604217844FFF792FD5A463346A3
:1025A000FDF789FE00224346FDF7DEFD02460B469D
:1025B00038465146FDF7F1FE2A462346FDF77BFEDD
:1025C000654A664BFDF774FE2A462346FDF770FE0A
:1025D00002B05B4ABDE8F04D5C4BFDF769BE002CD4
:1025E0004FF000024BDA4646434628462146FDF7A7
:1025F000BBFD4FF0FF32FEF761F804460246584833
:102600000D460B4606217844FFF75AFD22462B461D
:10261000FDF751FE804653488A4622462B46042148
:102620007844FFF74DFD22462B46FDF744FE00227D
:102630003346FDF799FD06468B462046294600F0B5
:1026400089F904460D4632465B4640465146FDF741
:10265000A4FE22462B46FDF72EFE3F4A3F4BFDF7D8
:1026600024FE22462B46FDF77FFD0122FEF726F8C9
:1026700002B03B46BDE8F04D314AFDF719BE2D4B87
:1026800028462146FDF714FE4FF0FF32FEF716F8FC
:1026900005460E4600F05EF900270C4680463A4695
:1026A0000B46FDF761FD82468B463A4623461046AF
:1026B0001946FDF700FE2A463346FDF7F9FD52465E
:1026C0005B46FDF76AFE824627488B462A4633461C
:1026D00006217844FFF7F4FC2A463346FDF7EBFD6C
:1026E000CDE9000121482A46334604217844FFF70A
:1026F000E7FC2A463346FDF7DEFD00220D4BFDF7D1
:1027000033FD02460B46DDE90001FDF746FE424679
:102710002346FDF7D0FD52465B46FDF725FD3A46C0
:102720002346FDF721FD02B00122BDE8F04DFDF783
:10273000C5BF00000000F03FFB2109400000F07F12
:10274000182D44540000E03F0000603CFB21F93F9D
:102750003004000046040000075C143326A6913CB8
:10276000A6030000BC030000DA020000F002000033
:1027700070B50122064D140321462846FEF78AF95A
:1027800021462846BDE870400022FEF783B90000CC
:102790000008014010B5044600224FF400610448CF
:1027A000FEF778F92046BDE8104000F011B80000AF
:1027B0000008014010B504460122D1020348FEF78B
:1027C00069F92046BDE8104000F002B80008014059
:1027D00070B500F00F0405090120FEF761F82846E6
:1027E00000F094F8FFF7C4FF204600F08FF8BDE832
:1027F0007040FFF7BDBF0000FEF760F9FFF7BAFABF
:10280000FFF790F9FFF7DAF9FFF75EFAFFF726F91D
:10281000FFF710F900211148FEF7C2FE04210F480E
:10282000FEF7BEFE08210D48FFF7A2F800210C4874
:10283000FFF79EF80BA0FFF74DF90C4C0621012085
:10284000FFF754F90AA10948A269FFF715FC0748E8
:10285000FFF740F99620FEF723F8EFE73C00002051
:1028600084000020646973743D2020000C00002067
:1028700025336420636D00002DE9F04D07460E46B8
:10288000FDF734FF04460D463A463346FDF710FD8A
:10289000DFF86CA0DFF86CB01B4B0746884616F0DB
:1028A000004F4FF000020AD0FDF764FF0AD9002262
:1028B0005B4638464146FDF775FF1BD212E0FDF737
:1028C00059FF08D20022534620462946FDF7EDFC69
:1028D00004460D460EE000225B4638464146FDF7B1
:1028E00061FF07D80022534620462946FDF73CFCED
:1028F00004460D463146204665F31E01BDE8F08DC5
:102900000000F03F0000E03F0000E0BF70B504466B
:10291000C0F3C00201210D48FEF7BCF80C4DC4F312
:1029200080024FF400412846FEF7B4F8C4F3400299
:102930004FF480412846FEF7ADF804F00102691417
:102940002846BDE87040FEF7A5B80000000C014025
:10295000000801402DE9F04106460F46FDF74CFF07
:10296000041E0D4618BF0120284320F00040C0F18E
:102970007F6000F1E040C00F0ED0301C18BF012076
:10298000384320F00040C0F17F6000F1E040C00F0C
:1029900004BF0120FFF702FC20462946BDE8F08174
:1029A00000000000000000000102030406070809FF
:1029B000555555555555C53F7D6FEB0312D6D4BFC0
:1029C0005544880E55C1C93F3B8F68B52882A4BFC6
:1029D00088B20175E0EF493F09F7FD0DE13D023F87
:1029E0004B2D8A1C273A03C0C88A599CE52A00400F
:1029F00059018D1B6C06E6BF82922EB1C5B8B33F5C
:102A0000202A0008000000203C0000007C21000873
:102A10005C2A00083C000020940400008C2100087F
:102A200000000000010000000100000000000000A4
:102A30000000000000000000000000000000000096
:102A40000000000000000000010000001000000075
:0C2A5000000000000024F4000000000062
:04000005080000ED02
:00000001FF
