:020000040800F2
:100000002005002001010008FB100008FB0F00087C
:10001000F91000086D010008F71200080000000048
:10002000000000000000000000000000D9110008DE
:100030006F01000800000000FD100008DB1100083F
:100040001B0100081B0100081B0100081B01000820
:100050001B0100081B0100081B01000871010008BA
:100060001B0100081B0100081B0100081B01000800
:100070001B0100081B0100081B0100081B010008F0
:100080001B0100081B0100081B0100081B010008E0
:100090001B0100081B0100081B0100081B010008D0
:1000A0001B010008251200081B0100081B010008A5
:1000B0001B0100081B010008000000001B010008D4
:1000C0001B01000800000000000000001B010008E8
:1000D000000000001B0100081B01000800000000D8
:1000E0001B0100081B0100081B010008DFF80CD0F1
:1000F00000F02AF8004800473913000820050020C6
:100100000648804706480047FEE7FEE7FEE7FEE7B1
:10011000FEE7FEE7FEE7FEE7FEE7FEE72112000846
:10012000ED000008D2B201E000F8012B491EFBD21D
:1001300070470022F6E710B513460A4604461946F2
:10014000FFF7F0FF204610BD064C074D06E0E068C3
:1001500040F0010394E8070098471034AC42F6D30E
:10016000FFF7C8FF88130008A8130008FEE77047D0
:10017000022000F015B8704710B50221064800F0C3
:10018000FBF80649012804D00A200A68D062C8603A
:1001900010BD1420F9E7000000080140D400002041
:1001A000044910B50A68024202D00860FFF7E4FF74
:1001B00010BD0000140401402DE9F84FDFF89C91B8
:1001C000002409F1040A0AF1040B23460F270BF15E
:1001D000040EBBE00125A5402A40AA4276D1DFF8F3
:1001E00080C14E68A6EB0C0866452BD00DDC032EB3
:1001F00034D005DC36B3012E19D0022E2FD11BE0EE
:10020000112E16D0122E2AD119E0B8F5881F19D058
:1002100006DCB8F5803F15D0B8F5801F1FD111E07E
:10022000B8F5001F0ED0B8F5041F18D10AE0CB684E
:1002300015E0CB681B1D12E0CB6808330FE0CB68DC
:100240000C330CE08B682BB1012B4FF0080303D06B
:10025000456104E0042302E0056100E00023FF2A79
:1002600001D8064601E000F104064FEA840501D9F1
:10027000A5F12005D6F8008007FA05FC28EA0C084D
:1002800003FA05F548EA0508C6F800804D68ED0058
:100290005BD5344DAE6946F00106AE61AD6924F020
:1002A000030605F0010500952F4D06EB050CDCF863
:1002B0000850A607360F07FA06F825EA0805DFF802
:1002C000AC80404503D14FF0000810E03DE0DFF87E
:1002D000A080404502D14FF0010808E0DFF894808B
:1002E000404502D14FF0020801E04FF0030808FA40
:1002F00006F848EA0508CCF808804D68D9F800608F
:10030000ED034D4601D5164300E096432E604D683F
:10031000DAF80060AD03554601D5164300E0964378
:100320002E604D68DBF80060ED025D4601D5164396
:1003300000E096432E604D68DEF80060AD02754621
:1003400001D5164300E096432E60641C0A6832FA19
:1003500004F57FF43FAFBDE8F88F000000040140D2
:100360000000111000100240000001400008014090
:10037000000C0140001001408068084000D00120BE
:100380007047000001488068704700006C00002042
:100390000248816802781144816070476C00002037
:1003A000074810B5016841F010010160032000F01A
:1003B00075F8002000F006F800F024F8002010BDC9
:1003C0000020024070B50D4D04464FF47A71287834
:1003D000B1FBF0F00A490968B1FBF0F000F011FC44
:1003E00048B9102C07D200222146501E00F036F8E2
:1003F00000206C6070BD012070BD00006C0000200A
:10040000780000200C4808B5816941F00101816144
:10041000816901F001010091C16941F08051C16120
:10042000C06900F0805000900448416821F0E0610C
:1004300041F08061416008BD0010024000000140B1
:10044000002809DB00F01F020121914040098000D3
:1004500000F1E020C0F8001170470000F0B40E4B2E
:100460001B680C46C3F30223C3F10705042D00D912
:100470000425191D072901D2002300E0DB1E0126F7
:1004800006FA05F1491E214099409E40761E16400D
:100490003143F0BC00F030BF0CED00E0064900F045
:1004A000070208684FF6FF03184040EA0220034A9B
:1004B00010430860704700000CED00E00000FA05F2
:1004C0002DE9F0470F46050061D0434E306800F03B
:1004D0000700B84209D2306820F007003843306086
:1004E000306800F00700B84251D128683B4C8107C2
:1004F00012D5400703D5606840F4E060606028785A
:10050000000703D5606840F4605060606068A968C7
:1005100020F0F000084360602878C00728D06868A1
:10052000012810D02168022810D0890700292EDA6E
:10053000616821F0030101436160FFF723FF8046FA
:1005400041F288390DE021688903EFE78901EDE781
:10055000FFF718FFA0EB0801494502D90320BDE8C9
:10056000F0876068696800F00C00B0EB810FEFD194
:10057000306800F00700B8420BD9306820F007005F
:1005800038433060306800F00700B84201D00120E5
:10059000E5E72878400705D56068E96820F4E06061
:1005A000084360602878000706D56068296920F450
:1005B000605040EAC100606000F018F86168084AC5
:1005C000C1F30311515CC840064908600648006841
:1005D000FFF7F8FE0020C2E70020024000100240B2
:1005E00078130008780000207000002012A185B068
:1005F0000FC98DE80F0014A0144A006804905168D8
:10060000134801F00C03042B10D0082B0ED1C1F3BA
:100610008343C9031DF803000AD5516804AAC1F336
:100620004041515C0A4A5043B0FBF1F005B07047BD
:1006300008494843FAE700000203040506070809D1
:100640000A0B0C0D0E0F10100102000000100240EA
:1006500000127A0000093D002DE9F84F040070D027
:100660002078C04DC00749D06868C0F381000128D8
:1006700007D06868C0F38100022809D16868C00308
:1006800006D52868800339D560680028E7D035E0B2
:100690006068B0F5803F0BD010B1B0F5A02F11D03D
:1006A000286820F480302860286820F4802002E048
:1006B000286840F480302860606890B1FFF762FEDF
:1006C00006460AE0286840F480202860F0E700BF72
:1006D000FFF758FE801B642873D828688003F7D57D
:1006E0000CE0FFF74FFE064605E000BFFFF74AFEAD
:1006F000801B6428F0D828688003F7D420789A4EAD
:1007000080074FF001094FF0000839D5686810F0F4
:100710000C0F07D06868C0F38100022809D168680F
:10072000C00306D42868800714D52069012808D1A1
:1007300010E02069B0B1C6F80090FFF723FE07462D
:1007400005E00AE1FFF71EFEC01B0228C4D8286896
:100750008007F7D52868616920F0F80040EAC100F9
:1007600028600DE0C6F80080FFF70CFE074604E0A5
:10077000FFF708FEC01B022823D828688007F7D49B
:10078000207800072CD57948A169D9B1C0F800902C
:10079000FFF7F8FD074604E0FFF7F4FDC01B022851
:1007A0000FD8686A8007F7D571484FF4FA5100688E
:1007B000B0FBF1F0009000BF0098411E0091FAD20A
:1007C0000EE080E0C0F80080FFF7DCFD074604E0A3
:1007D000FFF7D8FDC01B022875D8686A8007F7D4D8
:1007E0002078400760D5E8690027C00008D4E86990
:1007F00040F08050E861E869012700F080500090E7
:100800005C480168C90513D40168834641F48071CE
:100810000160FFF7B7FD824606E000BFFFF7B2FDBB
:10082000A0EB0A0064284ED8DBF80000C005F5D51F
:10083000E06801280AD008B1052813D0286A20F002
:1008400001002862286A20F0040002E0286A40F0D3
:1008500001002862E06841F2883B98B1FFF792FD01
:1008600082460BE0286A40F004002862EEE700BFF1
:10087000FFF788FDA0EB0A0159455AD8286A80077E
:10088000F6D50CE0FFF77EFD824605E0FFF77AFD26
:10089000A0EB0A0159454CD8286A8007F6D41FB14D
:1008A000E86920F08050E861E06988B36968C1F3C5
:1008B0008101022944D00228C6F8608004D0FFF7E5
:1008C00061FD044638E034E0FFF75CFD074604E0D4
:1008D000FFF758FDC01B02282BD828688001F7D4E9
:1008E000206AB0F5803F05D16868A16820F4003027
:1008F00008436860D4E908010843696821F4741169
:1009000008436860C6F86090FFF73CFD044606E0C7
:1009100025E000BFFFF736FD001B022809D8286834
:100920008001F7D51BE000BFFFF72CFD001B02285C
:1009300002D90320BDE8F88F28688001F4D40EE0C6
:100940000128F7D06868226A00F48031914204D10E
:10095000616A00F47010884201D00120EAE70020AB
:10096000E8E70000001002400000424280044242DA
:10097000780000200070004070B5040009D0606A63
:10098000002540B125616561A56294F8510040B130
:100990000CE0012070BD6068B0F5827FF4D0E561A5
:1009A000F2E784F85050204600F040F8022084F826
:1009B00051002068016821F040010160A088218970
:1009C00000F4827001F404410843A18901F400613C
:1009D0000843217C01F002010843217D01F001015F
:1009E0000843218B01F400710843217F01F0380195
:1009F000084394F8201001F080010843218D01F490
:100A00000051084321680860A069042101EA1040F0
:100A1000216848602068C16921F40061C161656591
:100A2000012084F85100002070BD000030B585B071
:100A300000240094019402940394006814498842AD
:100A400023D11448816941F480518161816901F4A5
:100A500080510491816941F00401816180690E4DEA
:100A600000F004000490B0200090022001900320C8
:100A7000039069462846FFF79FFB4020CDE900041C
:100A8000694628460294FFF797FB05B030BD000089
:100A90000030014000100240000801402DE9F84FED
:100AA000044690F8500000271D4616468946012846
:100AB0000DD04FF0010B84F850B0FFF763FC804677
:100AC00094F85100BA46012804D0022793E002208E
:100AD000BDE8F88FB9F1000F73D0002E71D003205C
:100AE00084F85100C4F854A0C4F83090A686E68675
:100AF000C4F838A0A4F83CA0A4F83EA0C4F844A0D0
:100B0000C4F840A0A068B0F5004F09D12068016882
:100B100021F0400101602068016841F480410160DA
:100B200020680168490603D4016841F04001016072
:100B3000E068B0F5006F606803D030B3012E24D0B8
:100B400041E008B1012E1CD1206B21680088C860EB
:100B500006E020688168890709D5216B0988C16092
:100B6000206B801C2063E08E401EE08609E0FFF7CA
:100B700009FCA0EB0800A84202D3681C01D031E0B8
:100B80007DB3E08E0028E4D120E0206B216800785E
:100B9000087306E020688168890709D5216B097808
:100BA0000173206B401C2063E08E401EE0860AE04B
:100BB000FFF7E8FBA0EB0800A84203D3681C02D0B3
:100BC00010E017E06DB1E08E0028E3D142462946DF
:100BD000204600F094FA08B120206065A06818B1A2
:100BE00006E0FFE7032706E02068C1688068009000
:100BF000606D00B1012784F851B084F850A03846E8
:100C000066E710B5401EB0F1807F01D3012010BD12
:100C10004FF0E02460610F21601700F06DFB0020B1
:100C2000A06107202061002010BD704770470000C0
:100C300070B590F83C20012A23D0012480F83C4074
:100C4000022280F83D2003685A689D6822F07006F1
:100C50000A6832435A600C4B02689A4205D0B2F1DE
:100C6000804F02D0094B9A4204D1496825F0800395
:100C70001943916080F83D40002180F83C100846FF
:100C800070BD022070BD0000002C01400004004037
:100C900010B5040003D094F83D0010B107E0012026
:100CA00010BD002084F83C00204600F01FF8022010
:100CB00084F83D00211D206800F0BAFA012084F874
:100CC000460084F83E0084F83F0084F8400084F831
:100CD000410084F8420084F8430084F8440084F81A
:100CE000450084F83D00002010BD000008B50068F4
:100CF0000B49884212D10B48816941F4006181613E
:100D00008069002200F40060009011461920FFF76E
:100D1000A5FBBDE808401920FFF792BB08BD000005
:100D2000002C01400010024090F83D10012901D034
:100D300001207047022180F83D100168CA6842F026
:100D40000102CA6000680A49884205D0B0F1804FAC
:100D500002D00849884204D1816801F007010629C0
:100D600003D0016841F001010160002070470000DC
:100D7000002C01400004004070B5044690F83C008F
:100D8000012817D0012584F83C50022084F83D004A
:100D90002068826822F0770222F47F42826008682D
:100DA000502830D00DDC20284DD005DC98B3102819
:100DB0003BD148E0022070BD302844D0402834D1D7
:100DC00039E0602828D0702806D0B0F5805F2CD09C
:100DD000B0F5005F29D10AE0CB68D1E90121206894
:100DE00000F054FA2068816841F0770109E0CB688F
:100DF000D1E90121206800F049FA2068816841F4B6
:100E00008041816011E0CA684968206800F050FAAA
:100E10005021206807E016E0CA684968206800F0A1
:100E200058FA6021206800F03BFA84F83D50002019
:100E300084F83C0070BDCA684968206800F038FA40
:100E400040212068EFE7226801461046EBE7704733
:100E500070B50446006801694FF00005C943890771
:100E600015D4C168C943890711D4E91E0161012065
:100E70002077206880698007204602D0FFF7E7FFCF
:100E800004E000F098F8204600F096F825772068F6
:100E90000169C943490717D4C168C943490713D435
:100EA0006FF004010161022020772068806910F44E
:100EB000407F204602D0FFF7CAFF04E000F07BF835
:100EC000204600F079F8257720680169C9430907B1
:100ED00016D4C168C943090712D46FF00801016133
:100EE000042020772068C0698007204602D0FFF7E1
:100EF000AEFF04E000F05FF8204600F05DF82577D3
:100F000020680169C943C90617D4C168C943C90625
:100F100013D46FF010010161082020772068C069A8
:100F200010F4407F204602D0FFF791FF04E000F06C
:100F300042F8204600F040F8257720680169C9434F
:100F4000C90708D1C168C943C90704D1891E016115
:100F5000204600F033F820680169C943090609D426
:100F6000C168C943090605D46FF0800101612046BC
:100F7000FFF75BFE20680169C943490609D4C168CF
:100F8000C943490605D46FF040010161204600F0D5
:100F900033F820680169C94389060BD4C168C94385
:100FA000890607D46FF0200101612046BDE870403A
:100FB000FFF73CBE70BD70477047000010B50C488D
:100FC0007022A0F108046423616830F81100214602
:100FD000087042EA1020487001220648FFF75EFDC3
:100FE0006068401C6060322801D10020606010BD44
:100FF000080000207C0000207047FEE700B585B0A7
:101000000020029003900D48816941F00401816144
:101010008069694600F004000490022000900848AE
:1010200001900848FFF7C8F8002211460720FFF793
:1010300015FA0720FFF704FA05B000BD00100240C2
:101040000000111000080140104810B50E49016061
:101050004FF48271416000214FF40062C0E9021236
:10106000D2010161C0E905122022C0E907214162D5
:1010700081620A21C162FFF77FFC002803D0BDE82E
:101080001040FFF778B810BD003001407C00002010
:1010900010B586B00024174800940194029403947C
:1010A000049413490594016041F63F71C0E90114AD
:1010B0000A21C0E9031444618461FFF7E9FD08B126
:1010C000FFF759F84FF48050009069460948FFF740
:1010D00053FE08B1FFF74FF8049404A9054805949E
:1010E000FFF7A6FD002801D0FFF745F806B010BDB8
:1010F000002C0140D4000020FEE77047704738B54F
:101100000B46009204460022802100F009F80028D6
:1011100004D0606D40F020006065032038BD000001
:101120002DE9F8431E46914688460446089DFFF780
:1011300029F9401B351AFFF725F9074625480068AD
:10114000C0F3CB30684338E0701C37D0FFF71AF992
:10115000C01BA84203D215B1009860B32CE02068F0
:10116000416821F0E00141606068B0F5827F0BD1F9
:10117000A068B0F5004F02D0B0F5806F04D12068B0
:10118000016821F040010160A06AB0F5005F09D15B
:101190002068016821F4005101602068016841F471
:1011A00000510160012084F85100002084F85000B3
:1011B0000320BDE8F8830025401E00902068816868
:1011C00038EA010004D000214945BDD10020F0E7F4
:1011D0000121F9E7780000207047FFF7D9B810B572
:1011E00090B028216846FEF7A4FF14210AA8FEF754
:1011F000A0FF022000900120049010200024059000
:1012000007946846FFF728FA0F20CDE90A040C94EA
:101210000D9400210AA80E94FFF752F910B010BDEA
:10122000704700000148FFF713BE0000D400002003
:1012300070B50268134B144C4FF08046984203D0AF
:10124000B04201D0A04203D122F070054A682A437F
:10125000984203D0B04201D0A04203D122F440749E
:10126000CA6822434C6922F08002224302608A68E5
:10127000C2620A688262984201D109690163012150
:10128000416170BD002C01400004004010B584682D
:1012900042EA032224F47F440A432243826010BDC1
:1012A000826822F070020A4342F0070181607047B1
:1012B00010B5036A046A24F001040462846924F00E
:1012C000F00444EA021423F00A020A438461026231
:1012D00010BD10B5036A23F0100303628369046A2A
:1012E00023F4704343EA023224F0A00343EA0111DD
:1012F0008261016210BDFEE70907090E002804DBC8
:1013000000F1E02080F80014704700F00F0000F1B9
:10131000E02080F8141D704702E008C8121F08C1C1
:10132000002AFAD170477047002001E001C1121F66
:10133000002AFBD170470000FFF732F8FFF74FFF9C
:10134000FFF75CFEFFF780FEFFF7A2FE0848FFF7FD
:10135000EBFC02210748FFF70FF80549012804D0EC
:101360000A200A68D062C860FEE71420F9E700008E
:10137000D400002000080140000000000000000030
:101380000102030406070809A81300080000002052
:101390007C00000018130008241400087C000020C2
:1013A000A404000028130008000000000000000052
:1013B000FF070009FC09F10AD90BB20C780D280EC1
:1013C000BF0E3B0F9A0FDA0FFA0FFA0FDA0F9A0FD0
:1013D0003B0FBF0E280E780DB20CD90BF10AFC0999
:1013E0000009FF07FE0602060D0525044C038602D0
:1013F000D6013F01C300640024000400040024005F
:101400006400C3003F01D60186024C0325040D058C
:101410000206FE06010000001000000000000000AF
:041420000024F400B0
:04000005080000ED02
:00000001FF
