:020000040800F2
:10000000380700200101000853190008C112000838
:1000100051190008A5010008EF1B000800000000AE
:10002000000000000000000000000000311A00087D
:10003000A70100080000000055190008331A000845
:100040001B0100081B0100081B0100081B01000820
:100050001B0100081B0100081B0100081B01000810
:100060001B0100081B0100081B0100081B01000800
:100070001B0100081B0100081B0100081B010008F0
:100080001B0100081B0100081B0100081B010008E0
:100090001B0100081B0100081B0100081B010008D0
:1000A0001B0100081B0100081B0100087D1A000845
:1000B0001B0100081B010008000000001B010008D4
:1000C0001B01000800000000000000001B010008E8
:1000D000000000001B0100081B01000800000000D8
:1000E0001B0100081B0100081B010008DFF80CD0F1
:1000F00000F046F800480047311D0008380700208E
:100100000648804706480047FEE7FEE7FEE7FEE7B1
:10011000FEE7FEE7FEE7FEE7FEE7FEE7791A0008E6
:10012000ED00000840EA01039B0703D009E008C97D
:10013000121F08C0042AFAD203E011F8013B00F8AC
:10014000013B521EF9D27047D2B201E000F8012BF8
:10015000491EFBD270470022F6E710B513460A4647
:1001600004461946FFF7F0FF204610BD034611F87C
:10017000012B00F8012B002AF9D118467047000026
:10018000064C074D06E0E06840F0010394E80700E4
:1001900098471034AC42F6D3FFF7ACFF4C2500086B
:1001A0006C250008FEE7704770B5044600F0F4F8CF
:1001B0000546601C02D004480078044400F0ECF8C6
:1001C000401BA042FAD370BD240000202DE9F84F57
:1001D000DFF89C91002409F1040A0AF1040B23467C
:1001E0000F270BF1040EBBE00125A5402A40AA42CF
:1001F00076D1DFF880C14E68A6EB0C0866452BD09F
:100200000DDC032E34D005DC36B3012E19D0022EBE
:100210002FD11BE0112E16D0122E2AD119E0B8F5DD
:10022000881F19D006DCB8F5803F15D0B8F5801FBF
:100230001FD111E0B8F5001F0ED0B8F5041F18D17A
:100240000AE0CB6815E0CB681B1D12E0CB680833D1
:100250000FE0CB680C330CE08B682BB1012B4FF017
:10026000080303D0456104E0042302E0056100E0D7
:100270000023FF2A01D8064601E000F104064FEAF8
:10028000840501D9A5F12005D6F8008007FA05FC00
:1002900028EA0C0803FA05F548EA0508C6F80080C4
:1002A0004D68ED005BD5344DAE6946F00106AE6198
:1002B000AD6924F0030605F0010500952F4D06EB0E
:1002C000050CDCF80850A607360F07FA06F825EAF1
:1002D0000805DFF8AC80404503D14FF0000810E07E
:1002E0003DE0DFF8A080404502D14FF0010808E072
:1002F000DFF89480404502D14FF0020801E04FF052
:10030000030808FA06F848EA0508CCF808804D68A2
:10031000D9F80060ED034D4601D5164300E0964341
:100320002E604D68DAF80060AD03554601D51643DE
:1003300000E096432E604D68DBF80060ED025D46FC
:1003400001D5164300E096432E604D68DEF800604C
:10035000AD02754601D5164300E096432E60641C3D
:100360000A6832FA04F57FF43FAFBDE8F88F000069
:100370000004014000001110001002400000014084
:1003800000080140000C0140001001400AB1016169
:1003900070470904FBE700000148806870470000CF
:1003A000240000200248816802781144816070476F
:1003B00024000020074810B5016841F010010160D9
:1003C000032000F075F8002000F006F800F024F893
:1003D000002010BD0020024070B50D4D04464FF4C2
:1003E0007A712878B1FBF0F00A490968B1FBF0F0A6
:1003F00000F007FC48B9102C07D200222146501EFD
:1004000000F036F800206C6070BD012070BD000067
:1004100024000020300000200C4808B5816941F01C
:1004200001018161816901F001010091C16941F01F
:100430008051C161C06900F080500090044841685B
:1004400021F0E06141F08061416008BD0010024090
:1004500000000140002809DB00F01F02012191404B
:100460004009800000F1E020C0F800117047000052
:10047000F0B40E4B1B680C46C3F30223C3F107050F
:10048000042D00D90425191D072901D2002300E0FD
:10049000DB1E012606FA05F1491E214099409E40C7
:1004A000761E16403143F0BC01F0A2BB0CED00E01B
:1004B000064900F0070208684FF6FF03184040EABB
:1004C0000220034A10430860704700000CED00E072
:1004D0000000FA052DE9F0470F46050061D0434EB4
:1004E000306800F00700B84209D2306820F00700F9
:1004F00038433060306800F00700B84251D12868B6
:100500003B4C810712D5400703D5606840F4E0609A
:1005100060602878000703D5606840F46050606030
:100520006068A96820F0F000084360602878C00780
:1005300028D06868012810D02168022810D08907C7
:1005400000292EDA616821F0030101436160FFF7A1
:1005500023FF804641F288390DE021688903EFE7E7
:100560008901EDE7FFF718FFA0EB0801494502D923
:100570000320BDE8F0876068696800F00C00B0EB0C
:10058000810FEFD1306800F00700B8420BD9306816
:1005900020F0070038433060306800F00700B842B0
:1005A00001D00120E5E72878400705D56068E968B3
:1005B00020F4E060084360602878000706D5606892
:1005C000296920F4605040EAC100606000F018F82A
:1005D0006168084AC1F30311515CC84006490860CC
:1005E00006480068FFF7F8FE0020C2E7002002403E
:1005F000001002403C2500083000002028000020A8
:1006000012A185B00FC98DE80F0014A0144A00682C
:1006100004905168134801F00C03042B10D0082BF0
:100620000ED1C1F38343C9031DF803000AD55168F5
:1006300004AAC1F34041515C0A4A5043B0FBF1F0B7
:1006400005B0704708494843FAE700000203040573
:10065000060708090A0B0C0D0E0F1010010200000E
:100660000010024000127A0000093D002DE9F84F09
:10067000040070D02078C04DC00749D06868C0F32E
:100680008100012807D06868C0F38100022809D1E1
:100690006868C00306D52868800339D560680028DB
:1006A000E7D035E06068B0F5803F0BD010B1B0F511
:1006B000A02F11D0286820F480302860286820F40A
:1006C000802002E0286840F480302860606890B1A3
:1006D000FFF762FE06460AE0286840F480202860A2
:1006E000F0E700BFFFF758FE801B642873D8286826
:1006F0008003F7D50CE0FFF74FFE064605E000BF8C
:10070000FFF74AFE801B6428F0D828688003F7D4DE
:1007100020789A4E80074FF001094FF0000839D534
:10072000686810F00C0F07D06868C0F381000228D9
:1007300009D16868C00306D42868800714D52069E9
:10074000012808D110E02069B0B1C6F80090FFF789
:1007500023FE074605E00AE1FFF71EFEC01B022844
:10076000C4D828688007F7D52868616920F0F800A8
:1007700040EAC10028600DE0C6F80080FFF70CFEDB
:10078000074604E0FFF708FEC01B022823D82868AC
:100790008007F7D4207800072CD57948A169D9B112
:1007A000C0F80090FFF7F8FD074604E0FFF7F4FDFE
:1007B000C01B02280FD8686A8007F7D571484FF42C
:1007C000FA510068B0FBF1F0009000BF0098411EA4
:1007D0000091FAD20EE080E0C0F80080FFF7DCFD67
:1007E000074604E0FFF7D8FDC01B022875D8686AE9
:1007F0008007F7D42078400760D5E8690027C0005B
:1008000008D4E86940F08050E861E869012700F009
:10081000805000905C480168C90513D40168834684
:1008200041F480710160FFF7B7FD824606E000BF2A
:10083000FFF7B2FDA0EB0A0064284ED8DBF80000F9
:10084000C005F5D5E06801280AD008B1052813D005
:10085000286A20F001002862286A20F0040002E0E3
:10086000286A40F001002862E06841F2883B98B1B4
:10087000FFF792FD82460BE0286A40F004002862F0
:10088000EEE700BFFFF788FDA0EB0A0159455AD8F3
:10089000286A8007F6D50CE0FFF77EFD824605E06A
:1008A000FFF77AFDA0EB0A0159454CD8286A80076A
:1008B000F6D41FB1E86920F08050E861E06988B3A0
:1008C0006968C1F38101022944D00228C6F860801A
:1008D00004D0FFF761FD044638E034E0FFF75CFD2B
:1008E000074604E0FFF758FDC01B02282BD82868F4
:1008F0008001F7D4206AB0F5803F05D16868A1680F
:1009000020F4003008436860D4E9080108436968AE
:1009100021F4741108436860C6F86090FFF73CFD4D
:10092000044606E025E000BFFFF736FD001B022865
:1009300009D828688001F7D51BE000BFFFF72CFD20
:10094000001B022802D90320BDE8F88F2868800127
:10095000F4D40EE00128F7D06868226A00F48031F0
:10096000914204D1616A00F47010884201D00120E4
:10097000EAE70020E8E700000010024000004242E1
:1009800080044242300000200070004070B5040036
:1009900009D0606A002540B125616561A56294F8BF
:1009A000510040B10CE0012070BD6068B0F5827F5D
:1009B000F4D0E561F2E784F85050204600F040F8AA
:1009C000022084F851002068016821F04001016094
:1009D000A088218900F4827001F404410843A189B0
:1009E00001F400610843217C01F002010843217DEC
:1009F00001F001010843218B01F400710843217FBC
:100A000001F03801084394F8201001F080010843F8
:100A1000218D01F40051084321680860A069042178
:100A200001EA1040216848602068C16921F4006132
:100A3000C1616565012084F85100002070BD00008F
:100A400000B585B0002100910191029103910068E9
:100A50000F4988421AD10F48816941F48051816160
:100A6000816901F480510491816941F0040181613F
:100A70008069694600F004000490A02000900220E4
:100A80000190032003900448FFF7A0FB05B000BDD0
:100A90000030014000100240000801402DE9F84FED
:100AA000044690F8500000271D4616468946012846
:100AB0000DD04FF0010B84F850B0FFF76DFC80466D
:100AC00094F85100BA46012804D0022793E002208E
:100AD000BDE8F88FB9F1000F73D0002E71D003205C
:100AE00084F85100C4F854A0C4F83090A686E68675
:100AF000C4F838A0A4F83CA0A4F83EA0C4F844A0D0
:100B0000C4F840A0A068B0F5004F09D12068016882
:100B100021F0400101602068016841F480410160DA
:100B200020680168490603D4016841F04001016072
:100B3000E068B0F5006F606803D030B3012E24D0B8
:100B400041E008B1012E1CD1206B21680088C860EB
:100B500006E020688168890709D5216B0988C16092
:100B6000206B801C2063E08E401EE08609E0FFF7CA
:100B700013FCA0EB0800A84202D3681C01D031E0AE
:100B80007DB3E08E0028E4D120E0206B216800785E
:100B9000087306E020688168890709D5216B097808
:100BA0000173206B401C2063E08E401EE0860AE04B
:100BB000FFF7F2FBA0EB0800A84203D3681C02D0A9
:100BC00010E017E06DB1E08E0028E3D142462946DF
:100BD000204600F0C0FE08B120206065A06818B172
:100BE00006E0FFE7032706E02068C1688068009000
:100BF000606D00B1012784F851B084F850A03846E8
:100C000066E710B5401EB0F1807F01D3012010BD12
:100C10004FF0E02460610F21601700F0E9FF002031
:100C2000A06107202061002010BD704770470000C0
:100C300070B590F83C20012A23D0012480F83C4074
:100C4000022280F83D2003685A689D6822F07006F1
:100C50000A6832435A600C4B02689A4205D0B2F1DE
:100C6000804F02D0094B9A4204D1496825F0800395
:100C70001943916080F83D40002180F83C100846FF
:100C800070BD022070BD0000002C01400004004037
:100C900010B5040003D094F83D0010B107E0012026
:100CA00010BD002084F83C00204600F01FF8022010
:100CB00084F83D00211D206800F0E6FE012084F844
:100CC000460084F83E0084F83F0084F8400084F831
:100CD000410084F8420084F8430084F8440084F81A
:100CE000450084F83D00002010BD000000B585B02F
:100CF00000210091019102910391006812498842FC
:100D00001FD11248816941F400618161816901F458
:100D100000610491816941F0040181618069694643
:100D200000F0040004904FF4807000900848FFF732
:100D30004DFA002211461B20FFF79AFB1B20FFF7FC
:100D400089FB05B000BD0000002C014000100240EE
:100D50000008014070B5044690F83C00012817D007
:100D6000012584F83C50022084F83D002068826808
:100D700022F0770222F47F4282600868502830D047
:100D80000DDC20284DD005DC98B310283BD148E07D
:100D9000022070BD302844D0402834D139E060288A
:100DA00028D0702806D0B0F5805F2CD0B0F5005F59
:100DB00029D10AE0CB68D1E90121206800F09FFE2B
:100DC0002068816841F0770109E0CB68D1E9012111
:100DD000206800F094FE2068816841F480418160C1
:100DE00011E0CA684968206800F09BFE5021206825
:100DF00007E016E0CA684968206800F0CBFE602171
:100E0000206800F086FE84F83D50002084F83C0005
:100E100070BDCA684968206800F083FE40212068E0
:100E2000EFE7226801461046EBE700002DE9F041AC
:100E30002949884247D1017F012944D1274CE168E3
:100E400000294FF0000140D000F024FA82B2E28085
:100E50000020E060A1888A4235D9501A80B2204E25
:100E60002081B6FBF0F080B2C0EB001080001827A4
:100E7000B0FBF7F083B2238060884FF47845A3EB92
:100E8000000C0CF1070C4FF6FF73BCF10E0F11D8DC
:100E9000591A114489B22181B6FBF1F189B2C1EB33
:100EA00001118900B1FBF7F189B22180091AC91D2E
:100EB0000E2908D9194600F0BAFE2946208800F00C
:100EC000B6FE20886080BDE8F08100F0E3F9A080E4
:100ED0000120E060F7E70000EC0000201400002093
:100EE00040420F002DE9F041054690F83C000C46C9
:100EF000012836D0012085F83C008AB3042A42D06C
:100F00002868082A51D0D4E90023E168066A26F44B
:100F100080560662C669076A26F4407646EA0323CD
:100F20004FF6FF7606EA013123F4704319434FF47C
:100F3000005627F4005306EA02321A43C1610262E6
:100F40002868C16921F44061C1612868C169A2684B
:100F500041EA0221C161002085F83C00BDE8F08132
:100F600001E00220FAE7D4E90012E368286800F003
:100F7000E9FD2868816921F00C0181612868816997
:100F8000A26811430FE0D4E90012E368286800F07A
:100F900013FE2868816921F44061816128688169B4
:100FA000A26841EA02218161D5E7D4E90027267BC6
:100FB000016A21F480710162C169036A21F00301B1
:100FC000394321F0F00731074FF4007647EA116109
:100FD00023F4007306EA02221A43C1610262286800
:100FE000C16921F00C01C1612868C169A26811437F
:100FF000B0E710B5040003D094F83D0010B107E04D
:10100000012010BD002084F83C00204600F01EF8AE
:10101000022084F83D00211D206800F035FD0120EC
:1010200084F8460084F83E0084F83F0084F84000CD
:1010300084F8410084F8420084F8430084F84400B6
:1010400084F8450084F83D00002010BD7047000082
:1010500010B5044651B104290DD0082910D094F8D8
:10106000410094F84520012811D10EE094F83E008B
:1010700094F84220F7E794F83F0094F84320F2E711
:1010800094F8400094F84420EDE7012A01D00120B3
:1010900010BD022051B1042911D0082918D084F8BC
:1010A000410084F845000C291BD133E084F83E0050
:1010B00084F842002068C26842F0020210E084F81E
:1010C0003F0084F843002068C26842F0040207E051
:1010D00084F8400084F844002068C26842F00802A6
:1010E000C2600122206800F0FDFC0D4920688842A2
:1010F00005D0B0F1804F02D00A49884204D18168FE
:1011000001F00701062903D0016841F001010160E7
:10111000002010BD2068C26842F01002E0E7000025
:10112000002C01400004004070B5044600680169CD
:101130004FF00005C943890715D4C168C943890721
:1011400011D4E91E016101202077206880698007A1
:10115000204602D0FFF76AFE04E000F098F820462F
:1011600000F096F8257720680169C943490717D42C
:10117000C168C943490713D46FF00401016102201B
:1011800020772068806910F4407F204602D0FFF766
:101190004DFE04E000F07BF8204600F079F825775A
:1011A00020680169C943090716D4C168C943090702
:1011B00012D46FF008010161042020772068C06913
:1011C0008007204602D0FFF731FE04E000F05FF810
:1011D000204600F05DF8257720680169C943C906FB
:1011E00017D4C168C943C90613D46FF01001016157
:1011F000082020772068C06910F4407F204602D084
:10120000FFF714FE04E000F042F8204600F040F83A
:10121000257720680169C943C90708D1C168C94356
:10122000C90704D1891E0161204600F032F8206808
:101230000169C943090609D4C168C943090605D42F
:101240006FF0800101612046FFF7EFFC2068016923
:10125000C943490609D4C168C943490605D46FF09A
:1012600040010161204600F02AF820680169C94365
:1012700089060BD4C168C943890607D46FF02001E1
:1012800001612046BDE87040FFF7D0BC70BD7047DB
:10129000704770470246002041B1042909D008294F
:1012A0000AD00C2901D11068006C70471068406B9F
:1012B00070471068806B70471068C06B704770474C
:1012C000FEE710B514460B46024600F00BF9200A63
:1012D00000F0EAF8E0B2BDE8104000F0E5B870B503
:1012E000141A5E1A641C761C74434FF49636049DDF
:1012F000B44200D934469BB292B289B280B200F0B7
:10130000F1F82E0A06E03046641E00F0CDF8E8B28F
:1013100000F0CAF8002CF6D170BD00002DE9F047AE
:10132000884608A9154691E8C00401469946582206
:101330004C48FEF7F7FE4C4C40462946C4F808805E
:101340006580C4F80C90A6800122FFF71FF8276182
:10135000A4F806A0012251463846FFF717F80120ED
:1013600000F084F86420FEF71FFF282000F07EF8CC
:10137000C02000F07BF8262000F096F8C12000F095
:1013800075F8112000F090F8C52000F06FF83520B6
:1013900000F08AF83E2000F087F8C72000F066F8D9
:1013A000BE2000F081F8362000F060F8482000F000
:1013B0007BF83A2000F05AF8552000F075F8B1207B
:1013C00000F054F8002000F06FF81F2000F06CF8D7
:1013D0002A2000F04BF8002000F066F8002000F012
:1013E00063F8002000F060F8EF2000F05DF82B209B
:1013F00000F03CF8002000F057F8002000F054F80E
:10140000012000F051F83F2000F04EF8342000F0A9
:101410002DF8B72000F02AF8072000F045F8B62094
:1014200000F024F80A2000F03FF8822000F03CF899
:10143000272000F039F8002000F036F8112000F0E5
:1014400015F86420FEF7B0FE292000F00FF86420A4
:10145000FEF7AAFE2C2000F009F8BDE8F0470520B1
:10146000FEF7A2BE3C0000200000002038B50C4C66
:101470008DF800000022A188E068FEF787FF0022B7
:101480006188A068FEF782FF0523012269460548AE
:10149000FFF704FB01226188A068FEF777FF38BDE3
:1014A000000000203C00002038B50C4C8DF80000F6
:1014B0000122A188E068FEF769FF00226188A06828
:1014C000FEF764FF0523012269460548FFF7E6FAA7
:1014D00001226188A068FEF759FF38BD0000002096
:1014E0003C0000202DE9F04107461C4615460E46FB
:1014F0002A20FFF7BBFF380AFFF7D6FFF8B2FFF745
:10150000D3FF280AFFF7D0FFE8B2FFF7CDFF2B206B
:10151000FFF7ACFF300AFFF7C7FFF0B2FFF7C4FFD9
:10152000200AFFF7C1FFE0B2FFF7BEFFBDE8F041C0
:101530002C20FFF79BBF00002DE9FE4F9A463C4B45
:1015400088460D9C197881464FF4A07504EB440041
:10155000012911D003290FD0B8F1F00F5BDAA945AA
:1015600059DA08EB4000012855D409EBC4000128E2
:1015700051D4587860B10FE0B9F1F00F4BDAA845BB
:1015800049DA09EB4000012845D408EBC400EEE736
:10159000B02A01D3521CD2B204EB0900029008F128
:1015A00001000190234902EB8200002500EB010BB2
:1015B00001E0052D09D01BF805700026F8070ED0B4
:1015C000012C04D0CDF800A00FE00027F5E708EBD0
:1015D000060081B209EB050080B2524624E00C9867
:1015E00050450FD0012C18D00090029806FB044102
:1015F00005FB040201980B1806FB048105FB04900F
:10160000FFF76DFE761C7F0876B2082ED6DB6D1CC8
:101610006DB2062DCDDBBDE8FE8F08EB060081B272
:1016200009EB050080B20C9AFFF74BFEEAE70000D9
:10163000000000203C2000082DE9FF4F0746C2F1C2
:10164000010014460FFA80F8C2EBC43040000FFAD4
:1016500080FA83B00E46081981B24FF001090025C7
:10166000B8B2069AFFF72DFE301B81B2B8B2069AC7
:10167000FFF727FE3819B1B280B2069AFFF721FEB4
:10168000B1B2381B57E000BFB8F1000F09DB0AF117
:1016900002000FFA80FA641E08EB0A0024B20FFA67
:1016A00080F809F102000FFA80F96D1C08EB0900BF
:1016B0002DB20FFA80F87819019006EB040B1FFA8F
:1016C0008BF180B2069AFFF7FCFD781B00901FFAA1
:1016D0008BF180B2069AFFF7F4FD0198A6EB040B9C
:1016E0001FFA8BF180B2069AFFF7EBFD00981FFA04
:1016F0008BF180B2069AFFF7E4FD3819019006EBF2
:10170000050B1FFA8BF180B2069AFFF7DAFD381B42
:1017100000901FFA8BF180B2069AFFF7D2FD019874
:10172000A6EB050B1FFA8BF180B2069AFFF7C9FDF5
:1017300000981FFA8BF180B2069AFFF7C2FDA5420E
:10174000A2DB07B0BDE8F08F08B50244521E00933B
:1017500012B20B4600F00AF808BD08B50A44521E42
:10176000009313B2024600F001F808BD2DE9F05FC6
:101770000C4606461546191BA2EB060000D5494249
:10178000002800DA4042814207DD304626461D46E9
:101790004FF001080446134601E04FF00008AE4246
:1017A00005DD30462E46054620461C460346A81B4E
:1017B0000FFA80F9181B00D540420FFA80FB09EBA5
:1017C000D97047109C4201DA012001E04FF0FF3050
:1017D000824617E0B8F1000F02D0B1B2A0B201E02A
:1017E000A1B2B0B20A9AFFF76CFDA7EB0B0007B2EB
:1017F000002F05DA04EB0A0004B207EB090007B278
:10180000761C36B2AE42E5DDBDE8F09F2DE9FC5F07
:101810000746DDE90C9606EB460045009B469246DE
:10182000884600240DE000BF05FB0480CDE900964A
:1018300000B25B465146FFF77FFE641CA4B2282C21
:1018400002D23A5D002AEFD1BDE8FC9F10B501221B
:101850001349012805D0022809D003280ED00428F6
:1018600013D00A703620FFF701FE882013E0022013
:1018700008703620FFF7FAFD28200CE003200870DE
:101880003620FFF7F3FD482005E0042008703620DD
:10189000FFF7ECFDE820BDE81040FFF705BE0000B3
:1018A000000000200B480A494FF4007201604FF419
:1018B0008271416000218160C1600161C0E905124F
:1018C000C1610162416281620A21C162FFF75EB8B3
:1018D000003001409400002010B58AB000241B485D
:1018E0000494059406940794089409940094019430
:1018F00002941549039401600721C0E901144FF6D1
:10190000FF71C0E9031444618461FFF7C1F94FF42A
:101910008050049004A90D48FFF71CFA0B48FFF70C
:1019200068FB089408A909480994FFF781F9012088
:10193000CDE9004002940022694604480394FFF771
:10194000D1FA0AB010BD0000002C0140EC000020CC
:10195000FEE77047704738B50B46009204460022F8
:10196000802100F009F8002804D0606D40F02000CC
:101970006065032038BD00002DE9F8431E469146FE
:1019800088460446089DFEF707FD401B351AFEF702
:1019900003FD074625480068C0F3CB30684338E0B4
:1019A000701C37D0FEF7F8FCC01BA84203D215B15B
:1019B000009860B32CE02068416821F0E0014160AC
:1019C0006068B0F5827F0BD1A068B0F5004F02D0FF
:1019D000B0F5806F04D12068016821F040010160FA
:1019E000A06AB0F5005F09D12068016821F40051B8
:1019F00001602068016841F400510160012084F811
:101A00005100002084F850000320BDE8F883002531
:101A1000401E00902068816838EA010004D000214F
:101A20004945BDD10020F0E70121F9E73000002051
:101A30007047FEF7B7BC10B590B028216846FEF796
:101A40008AFB14210AA8FEF786FB022000900120E1
:101A5000049010200024059007946846FEF706FEC7
:101A60000F20CDE90A040C940D9400210AA80E94CD
:101A7000FEF730FD10B010BD704700000148FFF7C1
:101A800053BB0000EC00002070B50268134B144CEF
:101A90004FF08046984203D0B04201D0A04203D11B
:101AA00022F070054A682A43984203D0B04201D020
:101AB000A04203D122F44074CA6822434C6922F048
:101AC0008002224302608A68C2620A688262984287
:101AD00001D1096901630121416170BD002C014000
:101AE0000004004010B501F01F030121046A994071
:101AF0008C430462016A9A401143016210BD10B523
:101B0000846842EA032224F47F440A432243826029
:101B100010BD826822F070020A4342F00701816022
:101B2000704710B5036A046A24F0010404628469F2
:101B300024F0F00444EA021423F00A020A43846108
:101B4000026210BD70B5046A24F001040462846965
:101B5000056A0E4EB04205D0B0F1804F02D00C4E57
:101B6000B04203D124F00304144301E044F0010423
:101B70001A0724F0F00444EA126225F00A0301F087
:101B80000A0119438261016270BD0000002C01400E
:101B90000004004010B5036A23F010030362836958
:101BA000046A23F4704343EA023224F0A00343EAB8
:101BB00001118261016210BD30B5046A24F0100485
:101BC00004628469056A24F4407444EA022222F41F
:101BD00070444FF6FF7202EA03322243A02425F03C
:101BE000A00304EA011119438261016230BDFEE7DE
:101BF0000907090E002804DB00F1E02080F800143A
:101C0000704700F00F0000F1E02080F8141D7047CD
:101C100002E008C8121F08C1002AFAD170477047B5
:101C2000002001E001C1121F002AFBD1704738B526
:101C300004460D460F2805D20B4632226E2178202D
:101C4000FFF78BFDA4F10F000F2806D238238C225A
:101C50006E2178200095FFF789FDA4F11E000F2862
:101C600006D25523AA226E2178200095FFF77EFD2B
:101C7000A4F12D000F2805D22B463C226E2178209E
:101C8000FFF762FDA4F13C000F2806D28723AF22A4
:101C90006E2178200095FFF769FDA4F14B000F2815
:101CA00006D2A92396226E2178200095FFF75EFDCB
:101CB000A4F15A000F2805D22B463C226E21782031
:101CC000FFF74BFDA4F169000F2806D29F23552290
:101CD0006E2178200095FFF749FDA4F178000F28C8
:101CE00006D28C2341226E2178200095FFF73EFD1D
:101CF000A4F187000F2805D23C222B466E21104606
:101D0000FFF722FDA4F196000F2806D246234122B8
:101D10006E2178200095FFF729FDA53C0F2C06D2F7
:101D2000382358226E2178200095FFF71FFD38BD1B
:101D300086B0FEF73FFBFFF77EFE00259548009535
:101D4000019502950395816941F0040181618069E3
:101D5000914F00F0040004902A461C213846FEF7FB
:101D600015FB1C2001248DE83100022003906946F8
:101D70003846FEF72BFAFFF795FDFFF7ADFD08207B
:101D8000CDE9000704263B461022029639468348D7
:101D9000FFF7C4FA0320FFF759FD41F65830FEF76C
:101DA00003FA00235A226E217820FFF745FC002316
:101DB0000A2214217820FFF7D0FC00230A22BE213A
:101DC0007820FFF7CAFC00230A226E211E20FFF7AD
:101DD000BBFC00230A226E21C820FFF7B5FC462376
:101DE000BE224121C3200095FFF7C0FC9123C322EE
:101DF0009621C8200095FFF7B9FC462332224121E5
:101E00002D200095FFF7B2FC962332229B212D2036
:101E10000095FFF7ABFC2423A0221F21A5200095ED
:101E2000FFF7A4FCB323A022BA21A5200095FFF759
:101E30009DFC24234E221F2149200095FFF796FC8C
:101E4000B3234B22BA2146200095FFF78FFC4FF6B3
:101E5000FF75CDE90054002330220A217720FFF7D7
:101E60006BFB200200F0B4F807464DA1FEF77EF9A7
:101E7000CDE900540023CD226E213846FFF7C6FC81
:101E800048A13846FEF772F9CDE9005400236E22CE
:101E90000A213846FFF7BAFC43A13846FEF766F937
:101EA000CDE9005400236E22D7213846FFF7AEFC5F
:101EB0003EA13846FEF75AF9CDE9005400233C22F2
:101EC000C8213846FFF7A2FC39A13846FEF74EF983
:101ED000CDE9005400239B22D2213846FFF796FC1F
:101EE00034A13846FEF742F9CDE9005400234122DF
:101EF00014213846FFF78AFC2FA13846FEF736F941
:101F0000CDE9005400239B2214213846FFF77EFCC4
:101F10002AA13846FEF72AF9CDE9005400231422FD
:101F2000A3213846FFF772FC25A13846FEF71EF9BB
:101F3000CDE900540023C822A3213846FFF766FCF0
:101F400020A13846FEF712F9CDE9005400231422EF
:101F50003C213846FFF75AFC1BA13846FEF706F92C
:101F6000CDE900540023C32237213846FFF74EFC49
:101F700016A13846FEF7FAF8CDE900560023FA22FA
:101F80005A213846FFF742FC044800215830FFF739
:101F90005FF8FEE7001002400008014094000020B6
:101FA0003930000031333500343500003330000063
:101FB000363000003135300031323000313500002C
:101FC00037350000313635003130350052504D0084
:101FD000F0B50B30154D20F007010024144A0FE036
:101FE00003688B420BD38B4205D95E1A43184768AE
:101FF000C3E9006700E04368136002C004E0021D0B
:1020000010680028ECD12046002802D1286808B1C9
:102010000020F0BD064A07481060074A121A22F055
:102020000702C0E9002401202860D7E7380000201B
:10203000340000203C010020380300200000000094
:10204000003E5B4F5B3E3E6B4F6B3E1C3E7C3E1C3E
:10205000183C7E3C181C577D571C1C5E7F5E1C0084
:10206000183C1800FFE7C3E7FF0018241800FFE73B
:10207000DBE7FF30483A060E2629792926407F05FE
:102080000507407F05253F5A3CE73C5A7F3E1C1C14
:1020900008081C1C3E7F14227F22145F5F005F5FD4
:1020A00006097F017F006689956A606060606094C0
:1020B000A2FFA29408047E040810207E20100808C5
:1020C0002A1C08081C2A08081E101010100C1E0CD0
:1020D0001E0C30383E3830060E3E0E060000000062
:1020E0000000005F00000007000700147F147F1449
:1020F000242A7F2A1223130864623649562050008E
:1021000008070300001C2241000041221C002A1C79
:102110007F1C2A08083E0808008070300008080864
:102120000808000060600020100804023E51494584
:102130003E00427F400072494949462141494D33A2
:102140001814127F1027454545393C4A4949314109
:10215000211109073649494936464949291E0000D7
:10216000140000004034000000081422411414142C
:102170001414004122140802015909063E415D5918
:102180004E7C1211127C7F494949363E4141412221
:102190007F4141413E7F494949417F090909013E4B
:1021A000414151737F0808087F00417F4100204072
:1021B000413F017F081422417F404040407F021C84
:1021C000027F7F0408107F3E4141413E7F0909099B
:1021D000063E4151215E7F09192946264949493267
:1021E00003017F01033F4040403F1F2040201F3F2D
:1021F0004038403F631408146303047804036159B2
:10220000494D43007F4141410204081020004141F3
:10221000417F04020102044040404040000307089F
:102220000020545478407F2844443838444444289B
:10223000384444287F385454541800087E09021842
:10224000A4A49C787F0804047800447D40002040CA
:10225000403D007F1028440000417F40007C04780E
:1022600004787C080404783844444438FC18242456
:102270001818242418FC7C080404084854545424D6
:1022800004043F44243C4040207C1C2040201C3C53
:102290004030403C44281028444C9090907C44644A
:1022A000544C4400083641000000770000004136DD
:1022B000080002010204023C2623263C1EA1A16163
:1022C000123A4040207A3854545559215555794195
:1022D0002254547842215554784020545579400C6A
:1022E0001E5272123955555559395454545939554D
:1022F0005454580000457C410002457D4200014590
:102300007C407D1211127DF0282528F07C54554523
:10231000002054547C547C0A097F4932494949328F
:102320003A4444443A324A4848303A4141217A3AA0
:1023300042402078009DA0A07D3D4242423D3D406C
:1023400040403D3C24FF2424487E4943662B2FFC1B
:102350002F2BFF0929F620C0887E090320545479C9
:10236000410000447D413048484A32384040227A9A
:10237000007A0A0A727D0D19317D2629292F282617
:102380002929292630484D4020380808080808081F
:102390000808382F10C8ACBA2F102834FA00007B78
:1023A000000008142A142222142A1408550055008B
:1023B00055AA55AA55AAFF55FF55FF000000FF007A
:1023C000101010FF00141414FF001010FF00FF1075
:1023D00010F010F0141414FC001414F700FF0000A7
:1023E000FF00FF1414F404FC141417101F10101F26
:1023F000101F1414141F00101010F0000000001F14
:10240000101010101F10101010F010000000FF101E
:102410001010101010101010FF10000000FF14001A
:1024200000FF00FF00001F10170000FC04F414144C
:102430001710171414F404F40000FF00F714141418
:1024400014141414F700F7141414171410101F1098
:102450001F141414F4141010F010F000001F101FBB
:102460000000001F14000000FC140000F010F01029
:1024700010FF10FF141414FF141010101F000000A0
:1024800000F010FFFFFFFFFFF0F0F0F0F0FFFFFFA4
:102490000000000000FFFF0F0F0F0F0F38444438FB
:1024A00044FC4A4A4A347E02020606027E027E024A
:1024B00063554941633844443C04407E201E200655
:1024C000027E020299A5E7A5991C2A492A1C4C7292
:1024D00001724C304A4D4D303048784830BC625A19
:1024E000463D3E494949007E0101017E2A2A2A2AA9
:1024F0002A44445F444440514A444040444A514085
:102500000000FF0103E080FF000008086B6B083645
:1025100012362436060F090F0600001818000000B6
:102520001010003040FF0101001F01011E00191DA5
:102530001712003C3C3C3C00000000000000000082
:102540000000000001020304060708096C250008CA
:10255000000000203C000000101C0008A825000816
:102560003C000020FC060000201C000801000000C8
:10257000000000000000000000000000000000005B
:10258000000000000000000000000000000000004B
:102590000100000010000000000000000024F40012
:0825A000000000000000000033
:04000005080000ED02
:00000001FF
