:020000040800F2
:10000000E004002001010008E71700086F15000850
:10001000E5170008F50800081B190008000000009B
:10002000000000000000000000000000EB170008C6
:10003000F708000800000000E9170008ED170008A5
:100040001B0100081B0100081B0100081B01000820
:100050001B0100081B0100081B0100081B01000810
:100060001B0100081B0100081B0100081B01000800
:100070001B0100081B0100081B0100081B010008F0
:100080001B0100081B0100081B0100081B010008E0
:100090001B0100081B0100081B0100081B010008D0
:1000A0001B0100083D1800081B0100081B01000887
:1000B000491800081B010008000000001B0100088F
:1000C0001B01000800000000000000001B010008E8
:1000D000000000001B0100081B01000800000000D8
:1000E000F90800081B0100081B010008DFF80CD00C
:1000F00000F0EEFB00480047011C0008E00400206F
:100100000648804706480047FEE7FEE7FEE7FEE7B1
:10011000FEE7FEE7FEE7FEE7FEE7FEE73B18000826
:10012000ED000008202A04DB203A21FA02F0002129
:10013000704721FA02F3D040C2F1200291400843F7
:1001400019467047D2B201E000F8012B491EFBD2DC
:1001500070470022F6E710B513460A4604461946D2
:10016000FFF7F0FF204610BDF0B480EA0102D40F83
:100170004200B2EB410F02D20246084611464A0045
:1001800042D0C30DDDB2C1F3C752AD1A202D35DA0E
:10019000C1F3160141F4000204B15242C5F1200638
:1001A00002FA06F12A411044B3EBD05F23D0C4B168
:1001B000012DA0EBC35009DCF0BC4FF0004202EA75
:1001C000C352DBB200F5000000F082BA400000F13B
:1001D000807000EBC350A0F1807040EAD1704900FC
:1001E00009E0490841EAC071A0EBC35000F50000E6
:1001F000400800EBC350F0BC00F061BA614201223C
:1002000002EB4101001BF6E7F0BC704781F00041B2
:10021000AAE780F00040A7E780EA010210B502F0EB
:100220000043400022D04A001FD0010E01EB1261B2
:10023000C0F35600C2F3560240F4000042F400023C
:10024000A0FB022000047F39140400D0401C50EAB7
:10025000124001D44000491EC2B20C0604EBD0107B
:10026000401C4008802A02D003E0002010BD20F08E
:100270000100002900DA0020184310BD2DE9FE4FCF
:10028000804681EA0300C00F0C46009021F0004137
:1002900023F00045B8EB0200A94105D240462146B3
:1002A00090461C460B46024623F00040104347D0C0
:1002B000270DC7F30A00C3F30A510290401A0190B8
:1002C00040286BDAC3F3130040F4801B0098924679
:1002D00020B10023D2EB030A63EB0B0B01985946C4
:1002E000C0F14002504600F0C9F906460D4650469E
:1002F0005946019A00F0D1F910EB08006141002441
:1003000087EA115284EAE7731A4340D0009A62B335
:10031000019A012A4FEA075215DC001B61EB02012A
:100320004FF0004202EA0752CDE90042001C41F5BD
:10033000801132462B4600F008FA03B0BDE8F08F7A
:1003400040462146F9E7001B61EB0201001C41F524
:10035000801300185B412018A2F5001747EB03013A
:1003600040EAD570B6196D4111E06D084FEA3606C6
:1003700045EAC0754FEA0752001B61EB0201001C01
:1003800041F5801149084FEA3000001951413246C9
:100390002B4603B0BDE8F04F00F0C8B90098012229
:1003A00040000023D0EB020263EBE073009821468B
:1003B0004FEAE074B8EB000061EB0401E9E783F079
:1003C00000435BE781F0004158E72DE9FE4F81EAE9
:1003D000030404F0004421F0004100944FF0000BAE
:1003E00023F0004350EA01045ED052EA03045BD0DC
:1003F000C3F30A54C1F30A552C44A4F2F334019414
:10040000A0FB0254C1F3130141F48011C3F31303A1
:1004100043F4801301FB024400FB034E840A970A55
:1004200044EA815447EA8357A4FB076802958D0A82
:1004300005FB07854FEA932C04FB0C542705029D0E
:100440004FEA065847EA1637B5EB08056EEB070C7E
:10045000870E920E47EA811742EA8312A7FB020138
:10046000B6EB0B0164EB00042B0D43EA0C335E1872
:1004700044EB1C50DA465146E7FB0201C5F3130476
:100480004FEA0B3343EA14534FEA0432019C43EA28
:100490000603A4F10C040294009CCDE900B400F022
:1004A00054F903B0BDE8F08F00200146F9E72DE9CB
:1004B000F04D81EA030404F0004B21F0004514469E
:1004C0004FF0000A23F0004150EA050220D054EA20
:1004D00001021DD0C5F30A570246C5F31303C1F349
:1004E0001300C1F30A5640F4801543F48013A7EBC0
:1004F0000608101BD64608F2FD3873EB050002D340
:1005000008F1010801E092185B41B8F1000F03DA2D
:1005100000200146BDE8F08D00204FF48011064612
:1005200084460EE0171B73EB050705D3121B63EB24
:10053000050306434CEA010C49084FEA30009218C3
:100540005B4150EA0107EDD152EA030012D082EA82
:10055000040083EA0501084305D0101BAB4106D215
:100560000122002306E000224FF0004302E06FF07A
:10057000010253101AEB06004CEB085110EB0A0075
:1005800041EB0B01BDE8F04D00F0D0B8C10F80EA9F
:10059000E0700844CA079623002100F099B80EB510
:1005A000C10F80EAE0700844CA07002140F23343DB
:1005B0008DE80E000A460B4600F0C7F803B000BDF8
:1005C00000F0004220F00040C10DC0F3160040F4DE
:1005D00000007F2901DA00207047962903DCC1F171
:1005E0009601C84001E096398840002AF4D0404284
:1005F000704700F0004230F000400AD0C10D01F514
:100600006071C0F3160042EA0151C208400711436D
:10061000704700200146704701F0004330B421F0DC
:10062000004150EA010206D00A0DA2F56072C1F342
:100630001301002A02DC30BC00207047440F44EA5A
:10064000C104C100E01830BC00EBC25000F037B864
:1006500030B50B46014600202022012409E021FA92
:1006600002F59D4205D303FA02F5491B04FA02F58F
:100670002844151EA2F10102F1DC30BD202A04DB62
:10068000203A00FA02F1002070479140C2F12003A5
:1006900020FA03F3194390407047202A06DBCB175A
:1006A000203A41FA02F043EAE07306E041FA02F32D
:1006B000D040C2F1200291400843194670470029FA
:1006C000A8BF7047401C490008BF20F001007047D8
:1006D00010B4B0FA80FC00FA0CF050EA010404BF38
:1006E00010BC704749B1CCF1200421FA04F411FA8E
:1006F0000CF118BF012121430843A3EB0C01CB1DD2
:100700004FEA00614FEA102042BF002010BC704742
:1007100000EBC35010440029A4BF10BC7047401C1C
:10072000490008BF20F0010010BC704710B5141E2E
:1007300073F1000408DA401C41F1000192185B419A
:100740001A4301D120F0010010BD2DE9F04D924671
:100750009B4611B1B1FA81F202E0B0FA80F2203288
:100760009046FFF78BFF04460F4640EA0A0041EA35
:100770000B0153465A46084313D0114653EA010071
:1007800019D0C8F140025046FFF7CCFC05460E4692
:10079000504659464246FFF771FF084305D00120F5
:1007A00004E020463946BDE8F08D0020054346EAC6
:1007B000E0762C4337430A986305E40AA0EB08006F
:1007C0000022FD0A44EA47540A3002D500200146BF
:1007D000E9E7010510196941DDE90845001969419A
:1007E000BDE8F04DA2E700002DE9F041054621F0FB
:1007F00000400C46284309D0C4F30A5040F233416C
:10080000884205DD28462146BDE8F0812846FBE701
:1008100040F2FE31884210DC0CDB4FEA043040EA43
:10082000155050EA053105D0104804F0004101434D
:100830000020E9E700200146E6E7A0F23340464207
:10084000C6F1400228462146FFF718FF07468846B2
:10085000284621463246FFF765FC43463A46FFF7F5
:1008600065FF3246BDE8F041FFF708BF0000F03FEA
:1008700030B5041E71F1000404DB4FF00044404227
:1008800064EB0101141E73F1000405DB1C464FF0FC
:100890000043524263EB04038B4208BF824230BDE7
:1008A00030B5041E71F1000404DB4FF000444042F7
:1008B00064EB0101141E73F1000405DB1C464FF0CC
:1008C0000043524263EB0403994208BF904230BD9B
:1008D000064C074D06E0E06840F0010394E807008D
:1008E00098471034AC42F6D3FFF704FC64200008AC
:1008F00084200008FEE7704710B54FF4806000F0D8
:1009000027F84FF4006000F023F84FF4805000F017
:100910001FF8BDE810404FF4005000F019B87047C0
:1009200070B5044600F00AF90546601C02D0044880
:100930000078044400F002F9401BA042FAD370BDD5
:100940003C00002001490120086070470C00002095
:10095000044910B50A68024202D00860FFF7F2FFAE
:1009600010BD0000140401402DE9F84FDFF89C9100
:10097000002409F1040A0AF1040B23460F270BF1A6
:10098000040EBBE00125A5402A40AA4276D1DFF83B
:1009900080C14E68A6EB0C0866452BD00DDC032EFB
:1009A00034D005DC36B3012E19D0022E2FD11BE036
:1009B000112E16D0122E2AD119E0B8F5881F19D0A1
:1009C00006DCB8F5803F15D0B8F5801F1FD111E0C7
:1009D000B8F5001F0ED0B8F5041F18D10AE0CB6897
:1009E00015E0CB681B1D12E0CB6808330FE0CB6825
:1009F0000C330CE08B682BB1012B4FF0080303D0B4
:100A0000456104E0042302E0056100E00023FF2AC1
:100A100001D8064601E000F104064FEA840501D939
:100A2000A5F12005D6F8008007FA05FC28EA0C0895
:100A300003FA05F548EA0508C6F800804D68ED00A0
:100A40005BD5344DAE6946F00106AE61AD6924F068
:100A5000030605F0010500952F4D06EB050CDCF8AB
:100A60000850A607360F07FA06F825EA0805DFF84A
:100A7000AC80404503D14FF0000810E03DE0DFF8C6
:100A8000A080404502D14FF0010808E0DFF89480D3
:100A9000404502D14FF0020801E04FF0030808FA88
:100AA00006F848EA0508CCF808804D68D9F80060D7
:100AB000ED034D4601D5164300E096432E604D6888
:100AC000DAF80060AD03554601D5164300E09643C1
:100AD0002E604D68DBF80060ED025D4601D51643DF
:100AE00000E096432E604D68DEF80060AD0275466A
:100AF00001D5164300E096432E60641C0A6832FA62
:100B000004F57FF43FAFBDE8F88F0000000401401A
:100B100000001110001002400000014000080140D8
:100B2000000C0140001001408068084000D0012006
:100B300070470AB1016170470904FBE7014880680A
:100B4000704700003C000020024881680278114490
:100B5000816070473C000020074810B5016841F0F3
:100B600010010160032000F075F8012000F006F884
:100B700000F024F8002010BD0020024070B50D4D9B
:100B800004464FF47A712878B1FBF0F00A490968FD
:100B9000B1FBF0F000F0CEFA48B9102C07D20022D9
:100BA0002146501E00F036F800206C6070BD012018
:100BB00070BD00003C000020480000200C4808B533
:100BC000816941F001018161816901F001010091B8
:100BD000C16941F08051C161C06900F0805000904E
:100BE0000448416821F0E06141F08061416008BD46
:100BF0000010024000000140002809DB00F01F0245
:100C0000012191404009800000F1E020C0F800116E
:100C100070470000F0B40E4B1B680C46C3F3022370
:100C2000C3F10705042D00D90425191D072901D298
:100C3000002300E0DB1E012606FA05F1491E2140D3
:100C400099409E40761E16403143F0BC00F07ABEBB
:100C50000CED00E0064900F0070208684FF6FF03BC
:100C6000184040EA0220034A104308607047000021
:100C70000CED00E00000FA052DE9F0470F460500F5
:100C800061D0434E306800F00700B84209D23068A6
:100C900020F0070038433060306800F00700B842A9
:100CA00051D128683B4C810712D5400703D56068B5
:100CB00040F4E06060602878000703D5606840F485
:100CC000605060606068A96820F0F00008436060D0
:100CD0002878C00728D06868012810D02168022829
:100CE00010D0890700292EDA616821F00301014341
:100CF0006160FFF723FF804641F288390DE02168EB
:100D00008903EFE78901EDE7FFF718FFA0EB080182
:100D1000494502D90320BDE8F0876068696800F0A2
:100D20000C00B0EB810FEFD1306800F00700B84243
:100D30000BD9306820F0070038433060306800F08D
:100D40000700B84201D00120E5E72878400705D523
:100D50006068E96820F4E060084360602878000774
:100D600006D56068296920F4605040EAC1006060DF
:100D700000F018F86168084AC1F30311515CC840DB
:100D80000649086006480068FFF7F8FE0020C2E741
:100D900000200240001002405420000848000020BB
:100DA0004000002013A185B00FC98DE80F0015A0E9
:100DB000154A00680490516801F00C00042804D022
:100DC000082804D0114805B070471148FBE7C1F36B
:100DD0008343C9031DF8030009D5516804AAC1F370
:100DE0004041515C0A4A5043B0FBF1F0EBE708493F
:100DF0004843E8E702030405060708090A0B0C0D3F
:100E00000E0F1010010200000010024000127A00C4
:100E100000093D002DE9F84F040070D02078C04D46
:100E2000C00749D06868C0F38100012807D068680E
:100E3000C0F38100022809D16868C00306D528687C
:100E4000800339D560680028E7D035E06068B0F5E8
:100E5000803F0BD010B1B0F5A02F11D0286820F43E
:100E600080302860286820F4802002E0286840F460
:100E700080302860606890B1FFF760FE06460AE0A7
:100E8000286840F480202860F0E700BFFFF756FE96
:100E9000801B642873D828688003F7D50CE0FFF71F
:100EA0004DFE064605E000BFFFF748FE801B6428A4
:100EB000F0D828688003F7D420789A4E80074FF046
:100EC00001094FF0000839D5686810F00C0F07D001
:100ED0006868C0F38100022809D16868C00306D49D
:100EE0002868800714D52069012808D110E02069FE
:100EF000B0B1C6F80090FFF721FE074605E00AE111
:100F0000FFF71CFEC01B0228C4D828688007F7D54D
:100F10002868616920F0F80040EAC10028600DE00F
:100F2000C6F80080FFF70AFE074604E0FFF706FE5A
:100F3000C01B022823D828688007F7D42078000730
:100F40002CD57948A169D9B1C0F80090FFF7F6FD1A
:100F5000074604E0FFF7F2FDC01B02280FD8686ABD
:100F60008007F7D571484FF4FA510068B0FBF1F0F3
:100F7000009000BF0098411E0091FAD20EE080E080
:100F8000C0F80080FFF7DAFD074604E0FFF7D6FD62
:100F9000C01B022875D8686A8007F7D420784007FC
:100FA00060D5E8690027C00008D4E86940F08050A7
:100FB000E861E869012700F0805000905C48016812
:100FC000C90513D40168834641F480710160FFF7BD
:100FD000B5FD824606E000BFFFF7B0FDA0EB0A00BA
:100FE00064284ED8DBF80000C005F5D5E06801287C
:100FF0000AD008B1052813D0286A20F00100286221
:10100000286A20F0040002E0286A40F0010028620B
:10101000E06841F2883B98B1FFF790FD82460BE013
:10102000286A40F004002862EEE700BFFFF786FD63
:10103000A0EB0A0159455AD8286A8007F6D50CE07A
:10104000FFF77CFD824605E0FFF778FDA0EB0A0183
:1010500059454CD8286A8007F6D41FB1E86920F0BA
:101060008050E861E06988B36968C1F381010229B1
:1010700044D00228C6F8608004D0FFF75FFD044624
:1010800038E034E0FFF75AFD074604E0FFF756FD6D
:10109000C01B02282BD828688001F7D4206AB0F53D
:1010A000803F05D16868A16820F40030084368607B
:1010B000D4E908010843696821F4741108436860A1
:1010C000C6F86090FFF73AFD044606E025E000BF51
:1010D000FFF734FD001B022809D828688001F7D5E6
:1010E0001BE000BFFFF72AFD001B022802D90320E6
:1010F000BDE8F88F28688001F4D40EE00128F7D00D
:101100006868226A00F48031914204D1616A00F477
:101110007010884201D00120EAE70020E8E70000D3
:101120000010024000004242800442424800002079
:101130000070004010B5401EB0F1807F01D3012047
:1011400010BD4FF0E02460610F21601700F0FAFB42
:101150000020A06107202061002010BD704770476B
:1011600070B590F83C20012A23D0012480F83C403F
:10117000022280F83D2003685A689D6822F07006BC
:101180000A6832435A600C4B02689A4205D0B2F1A9
:10119000804F02D0094B9A4204D1496825F0800360
:1011A0001943916080F83D40002180F83C100846CA
:1011B00070BD022070BD0000002C01400004004002
:1011C00010B5040003D094F83D0010B107E00120F1
:1011D00010BD002084F83C00204600F01FF80220DB
:1011E00084F83D00211D206800F034FB012084F8C4
:1011F000460084F83E0084F83F0084F8400084F8FC
:10120000410084F8420084F8430084F8440084F8E4
:10121000450084F83D00002010BD000008B5154AC7
:101220000168154891420ED1816941F400618161E4
:101230008069002200F40060009011461920FFF739
:10124000E9FC192010E0B1F1804F11D1C16941F0E2
:101250000101C161C069002200F00100009002217B
:101260001C20FFF7D7FC1C20BDE80840FFF7C4BCDA
:1012700008BD0000002C01400010024090F83D1015
:10128000012901D001207047022180F83D1001683A
:10129000CA6842F00102CA6000680A49884205D063
:1012A000B0F1804F02D00849884204D1816801F032
:1012B0000701062903D0016841F001010160002007
:1012C00070470000002C01400004004070B5044647
:1012D00090F83C00012817D0012584F83C500220EA
:1012E00084F83D002068826822F0770222F47F4271
:1012F00082600868502830D00DDC20284DD005DCF5
:1013000098B310283BD148E0022070BD302844D06B
:10131000402834D139E0602828D0702806D0B0F5B4
:10132000805F2CD0B0F5005F29D10AE0CB68D1E90D
:101330000121206800F0BCFA2068816841F0770143
:1013400009E0CB68D1E90121206800F0B1FA2068FA
:10135000816841F48041816011E0CA684968206871
:1013600000F0B8FA5021206807E016E0CA68496822
:10137000206800F0C0FA6021206800F0A3FA84F829
:101380003D50002084F83C0070BDCA684968206860
:1013900000F0A0FA40212068EFE7226801461046DD
:1013A000EBE7704770B50446006801694FF000052F
:1013B000C943890715D4C168C943890711D4E91EF7
:1013C000016101202077206880698007204602D0D3
:1013D000FFF7E7FF04E000F098F8204600F096F8E9
:1013E000257720680169C943490717D4C168C943F3
:1013F000490713D46FF004010161022020772068AF
:10140000806910F4407F204602D0FFF7CAFF04E055
:1014100000F07BF8204600F079F825772068016914
:10142000C943090716D4C168C943090712D46FF02C
:1014300008010161042020772068C06980072046E8
:1014400002D0FFF7AEFF04E000F05FF8204600F0A6
:101450005DF8257720680169C943C90617D4C168BA
:10146000C943C90613D46FF0100101610820207729
:101470002068C06910F4407F204602D0FFF791FF3A
:1014800004E000F042F8204600F040F8257720689C
:101490000169C943C90708D1C168C943C90704D153
:1014A000891E0161204600F033F820680169C943B4
:1014B000090609D4C168C943090605D46FF0800143
:1014C00001612046FFF74AFE20680169C9434906C9
:1014D00009D4C168C943490605D46FF040010161D0
:1014E000204600F043F820680169C94389060BD4FF
:1014F000C168C943890607D46FF020010161204605
:10150000BDE87040FFF72BBE70BD7047704700000C
:1015100010B500681349144C884218D12046E1697F
:10152000806901290BD0002808DD002000F054FD5F
:101530006069401C6061A069401EA06110BD002868
:10154000FCDD012000F048FD6069401EF2E7A16863
:101550000129F3D1B0F1804FF0D1BDE8104000F087
:10156000CBBB0000002C01400C0000207047FEE7C0
:10157000084810B50121416081600021016001200F
:1015800000F00EFB022000F00BFBBDE810400A202B
:10159000FFF7C6B90000002010B5FFF7E9FF2820CB
:1015A00000F0FEFA062000F0FBFABDE810400C2027
:1015B00000F0F6BA70B5134C01252168491C216072
:1015C000102905DA00F0FAFAA068401CA06070BD8E
:1015D00009D100F0F3FA01210220A56000F020F803
:1015E0000220606070BD11390F29EBD300F0E6FADC
:1015F00001210846A56000F013F80020C4E90005A9
:1016000070BD00000000002010B5044603E000BFDC
:10161000FFF7D0FF641C20780028F9D110BD00002E
:1016200070B50C4D0C46064601280CD0022E09D18F
:1016300004F1BF00C0B200F0B3FA04F10F00AC60D7
:10164000C5E9000670BD04F17F00C0B200F0A8FA41
:10165000601EF4E7000000202DE9F04186B0002470
:1016600029480094019402940394816941F0200177
:101670008161816901F020010491816941F00401D7
:101680008161816901F004010491816941F00801DF
:10169000816180691D4F00F00800049000223F2105
:1016A0003846FFF746FADFF868800022FF214046FF
:1016B000FFF73FFA3F2001250226CDE90005CDE9DD
:1016C000024669463846FFF74FF9FF20CDE900058D
:1016D000CDE9024669464046FFF746F94FF470509F
:1016E00000900C48CDE9010569464046FFF73CF9FA
:1016F000002203212820FFF78DFA2820FFF77CFA2B
:1017000006B0BDE8F0810000001002400008014072
:10171000000C01400000211010B586B000241748CD
:101720000094019402940394049413490594016075
:101730003F21C0E901144FF22341C0E90314446181
:101740008461FFF73DFD08B1FFF7E9F84FF48050E1
:10175000009069460948FFF7B9FD08B1FFF7DFF8C7
:10176000049404A905480594FFF7FAFC002801D069
:10177000FFF7D5F806B010BD002C01404C0000204A
:1017800010B586B000241648009401940294039486
:1017900004944FF08041059401603F21C0E9011499
:1017A0004FF22341C0E903148461FFF709FD08B13A
:1017B000FFF7B5F84FF48050009069460848FFF7EE
:1017C00085FD08B1FFF7ABF8049404A9044805941B
:1017D000FFF7C6FC002801D0FFF7A1F806B010BD46
:1017E00094000020FEE7704770477047FFF7ACB9E0
:1017F00030B58FB028216846FEF7ABFC14210AA84B
:10180000FEF7A7FC0121080400240491CDE9001093
:10181000CDE908040294022507956846FFF7FAFA15
:101820000F20CDE90A056802CDE90C4000210AA885
:101830000E94FFF721FA0FB030BD70470148FFF753
:10184000B1BD00004C0000200148FFF7ABBD000017
:101850009400002070B50268134B144C4FF0804682
:10186000984203D0B04201D0A04203D122F07005CB
:101870004A682A43984203D0B04201D0A04203D123
:1018800022F44074CA6822434C6922F08002224349
:1018900002608A68C2620A688262984201D109695C
:1018A00001630121416170BD002C01400004004032
:1018B00010B5846842EA032224F47F440A43224399
:1018C000826010BD826822F070020A4342F0070174
:1018D0008160704710B5036A046A24F00104046251
:1018E000846924F0F00444EA021423F00A020A4353
:1018F0008461026210BD10B5036A23F01003036215
:101900008369046A23F4704343EA023224F0A0039B
:1019100043EA01118261016210BDFEE70FB4084B7A
:1019200010B504A902AA039800F02CF8044602A9F5
:10193000002000F0D1F8204610BC5DF814FB000038
:10194000D91A00080907090E002804DB00F1E0207D
:1019500080F80014704700F00F0000F1E02080F8DC
:10196000141D704702E008C8121F08C1002AFAD1EE
:1019700070477047002001E001C1121F002AFBD10F
:10198000704700002DE9FF4F89B09B4604460025B3
:1019900006E025280BD05A460B999047641C6D1C15
:1019A00020780028F5D10DB02846BDE8F08F00273B
:1019B000B8460122474900E0074314F8013F203BA5
:1019C00002FA03F00842F7D120782E2819D114F832
:1019D000010F47F004072A280ED06FF02F0220785D
:1019E000A0F1300109290CD808EB880102EB410174
:1019F00000EB0108641CF2E70A98641C50F8048BA1
:101A00000A9020780028CED0642808D0692806D013
:101A100075281ED05A460B9990476D1C58E00A99BC
:101A20004FF00A0901C90A91002802DA40422D212B
:101A300002E0390504D52B218DF82010012103E0A7
:101A4000F90704D02021F7E78A4608AE0DE000210F
:101A5000FAE70A994FF00A0901C90A91F7E74946DE
:101A6000FEF7F6FD303106F8011D0028F7D1ADEB89
:101A7000060000F12009780701D44FF00108C8459D
:101A800002DDA8EB090000E000208046002706E008
:101A900008A85A46C05D0B9990476D1C7F1C57459E
:101AA000F6DB04E030205A460B9990476D1CB8F1E4
:101AB0000001A8F10108F5DC05E016F8010B5A4613
:101AC0000B9990476D1CB9F10001A9F10109F4DCF3
:101AD000641C65E7092801000A68531C0B6010703C
:101AE0007047000010B5064C012202212046FFF786
:101AF00020F820460022BDE810400221FFF719B867
:101B0000000801402DE9F05F0025244E6F1E4FF4C0
:101B100080684FF400694FF4805A4FF4005B284608
:101B200000F0DCF93C4641463046FEF7FDFF00B9C7
:101B3000002449463046FEF7F7FF00B9012451461C
:101B40003046FEF7F1FF00B9022459463046FEF751
:101B5000EBFFD0B1601C1AD004EB850400220121F8
:101B60003046FEF7E6FF002202213046FEF7E1FF95
:101B7000002204213046FEF7DCFF00220821304617
:101B8000FEF7D7FF2046BDE8F09F0324E4E70A20D4
:101B9000FEF7C6FE6D1C042DC1DBF4E7000C01400E
:101BA00010B50446002201210348FEF7C2FF20467B
:101BB000BDE8104000F010B80008014010B5044620
:101BC000012211460348FEF7B4FF2046BDE810404D
:101BD00000F002B80008014070B500F00F040509DC
:101BE0000120FEF79DFE284600F03AF9FFF77AFF44
:101BF000204600F035F9BDE87040FFF773BF0000E4
:101C0000FEF7AAFFFFF7F4FDFFF726FDFFF784FDBF
:101C1000FFF7B6FDFFF7C0FCFFF7AAFC00F06CF879
:101C20002E4C0127002604F12008A068012811D1BC
:101C300020680128F9D1FFF765FF0E2809D1A660B9
:101C4000FFF796FC26A0FFF7DFFC01210220FFF73B
:101C5000E7FC2660A0680028E7D120680128E4D1CD
:101C6000FFF750FF05460E2804D1206900F060F907
:101C7000A76026612660A0680028D6D118F8050064
:101C8000FFF798FC0C2D13D0E068012812D00C2D22
:101C9000CBD018F805003038FEF778FC054614491B
:101CA0002069FEF7B9FA2946FEF75EFA2061BCE723
:101CB000E760BAE70C2DB8D018F805003038FEF709
:101CC0006EFC00220B4BFEF7F2FBFEF7A5FC014673
:101CD0002069FEF749FAC4E90360A6E70C0000207A
:101CE0005459504520414E474C45203E203D200050
:101CF00000002041000024402DE9F041254886B035
:101D0000012181604069FEF74AFC234A234BFEF71C
:101D10005CFBFEF781FC10F1FF4F02D32049FEF778
:101D200023FA2049FEF778FAFEF74AFC0A2190FBD5
:101D3000F1F201FB120890FBF1F090FBF1F201FBD4
:101D4000120590FBF1F090FBF1F201FB120490FB05
:101D5000F1F090FBF1F201FB12070121DF260846AA
:101D6000FFF75EFCCDE9005823463A460EA102A8D3
:101D7000FFF7D4FD02A8FFF747FC3046FFF71EFF30
:101D800001210220FFF74CFC0CA0FFF73DFC06B040
:101D9000BDE8F0810C000020CDCCCCCCCCCCEC3F0D
:101DA0000000B44300002041414E474C453A2020FA
:101DB0002564256425642E25640000003D203E43F3
:101DC00048414E474520414E474C45002DE9F04DD6
:101DD00007460E46FEF708FD04460D463A463346D2
:101DE000FEF7F0FADFF86CA0DFF86CB01B4B07468B
:101DF000884616F0004F4FF000020AD0FEF738FD7B
:101E00000AD900225B4638464146FEF749FD1BD2FF
:101E100012E0FEF72DFD08D2002253462046294647
:101E2000FEF7CDFA04460D460EE000225B4638462A
:101E30004146FEF735FD07D8002253462046294685
:101E4000FEF71CFA04460D463146204665F31E0196
:101E5000BDE8F08D0000F03F0000E03F0000E0BF73
:101E600070B50E4D0446C0F3C00220212846FEF78F
:101E700060FEC4F3800210212846FEF75AFEC4F328
:101E8000400208212846FEF754FE04F001022846CD
:101E9000BDE870400421FEF74CBE00000008014080
:101EA0002DE9F04115460C4F0E46C2B21C461021DA
:101EB0003846FEF73EFEF2B220213846FEF739FEE4
:101EC000EAB240213846FEF734FEE2B23846BDE8B9
:101ED000F0418021FEF72DBE000C0140F8B504460C
:101EE00011A0124E006800901DF804006D4600F02D
:101EF000080201213046FEF71CFE285D022100F099
:101F000004023046FEF715FE285D042100F00202AF
:101F10003046FEF70EFE285D082100F00102304633
:101F2000FEF707FEF8BD0000070B0D0E000C014088
:101F30002DE9F047214C06466069FEF730FBDFF8DB
:101F40008080DFF8809042464B46FEF73EFA074617
:101F50000D463046FEF74DFB3A462B46FEF72FFA6C
:101F6000FEF75AFB184A1949904202DDFEF74EF976
:101F700005E080F00043934201DDFEF7F5F8FEF73F
:101F800038FB42464B46FEF792FAFFF71FFFFEF77B
:101F900043FBFEF715FB0125A061002803DA404250
:101FA000C4E9060501E00020E0610948FFF766F991
:101FB0000848FFF763F9A560BDE8F0870C00002032
:101FC000CDCCCCCCCCCCEC3F000034430000B443AF
:101FD0004C000020940000201D494A6830B1521E78
:101FE00010464A60082A03DD012003E0521CF7E78F
:101FF0000AB908204860401C01D0486801E0072069
:102000004860092823D2DFE800F02205070C0F15ED
:10201000171A1E00002317E000231A460121012091
:1020200006E000231A4601E00023012201210020DE
:10203000FFF736BF002300E00123012201E0012366
:1020400000220021F3E7012300221146E7E7704751
:102050000C0000200000000000000000010203044A
:102060000607080984200008000000204C0000003A
:1020700064190008D02000084C00002094040000DF
:1020800074190008000000000100000001000000B9
:102090000000000000000000000000000000000040
:1020A0000000000000000000000000000000000030
:1020B0003738394134353642313233432E30454694
:1020C0000100000010000000000000000024F400E7
:04000005080000ED02
:00000001FF
